{
  "contractName": "PRETokenV2",
  "abi": [
    {
      "anonymous": false,
      "inputs": [
        {
          "indexed": true,
          "internalType": "address",
          "name": "owner",
          "type": "address"
        },
        {
          "indexed": true,
          "internalType": "address",
          "name": "spender",
          "type": "address"
        },
        {
          "indexed": false,
          "internalType": "uint256",
          "name": "value",
          "type": "uint256"
        }
      ],
      "name": "Approval",
      "type": "event"
    },
    {
      "anonymous": false,
      "inputs": [
        {
          "indexed": false,
          "internalType": "address",
          "name": "account",
          "type": "address"
        }
      ],
      "name": "Paused",
      "type": "event"
    },
    {
      "anonymous": false,
      "inputs": [
        {
          "indexed": true,
          "internalType": "bytes32",
          "name": "role",
          "type": "bytes32"
        },
        {
          "indexed": true,
          "internalType": "address",
          "name": "account",
          "type": "address"
        },
        {
          "indexed": true,
          "internalType": "address",
          "name": "sender",
          "type": "address"
        }
      ],
      "name": "RoleGranted",
      "type": "event"
    },
    {
      "anonymous": false,
      "inputs": [
        {
          "indexed": true,
          "internalType": "bytes32",
          "name": "role",
          "type": "bytes32"
        },
        {
          "indexed": true,
          "internalType": "address",
          "name": "account",
          "type": "address"
        },
        {
          "indexed": true,
          "internalType": "address",
          "name": "sender",
          "type": "address"
        }
      ],
      "name": "RoleRevoked",
      "type": "event"
    },
    {
      "anonymous": false,
      "inputs": [
        {
          "indexed": true,
          "internalType": "address",
          "name": "from",
          "type": "address"
        },
        {
          "indexed": true,
          "internalType": "address",
          "name": "to",
          "type": "address"
        },
        {
          "indexed": false,
          "internalType": "uint256",
          "name": "value",
          "type": "uint256"
        }
      ],
      "name": "Transfer",
      "type": "event"
    },
    {
      "anonymous": false,
      "inputs": [
        {
          "indexed": false,
          "internalType": "address",
          "name": "account",
          "type": "address"
        }
      ],
      "name": "Unpaused",
      "type": "event"
    },
    {
      "inputs": [],
      "name": "DEFAULT_ADMIN_ROLE",
      "outputs": [
        {
          "internalType": "bytes32",
          "name": "",
          "type": "bytes32"
        }
      ],
      "stateMutability": "view",
      "type": "function"
    },
    {
      "inputs": [],
      "name": "PAUSER_ROLE",
      "outputs": [
        {
          "internalType": "bytes32",
          "name": "",
          "type": "bytes32"
        }
      ],
      "stateMutability": "view",
      "type": "function"
    },
    {
      "inputs": [
        {
          "internalType": "address",
          "name": "owner",
          "type": "address"
        },
        {
          "internalType": "address",
          "name": "spender",
          "type": "address"
        }
      ],
      "name": "allowance",
      "outputs": [
        {
          "internalType": "uint256",
          "name": "",
          "type": "uint256"
        }
      ],
      "stateMutability": "view",
      "type": "function"
    },
    {
      "inputs": [
        {
          "internalType": "address",
          "name": "spender",
          "type": "address"
        },
        {
          "internalType": "uint256",
          "name": "amount",
          "type": "uint256"
        }
      ],
      "name": "approve",
      "outputs": [
        {
          "internalType": "bool",
          "name": "",
          "type": "bool"
        }
      ],
      "stateMutability": "nonpayable",
      "type": "function"
    },
    {
      "inputs": [
        {
          "internalType": "address",
          "name": "account",
          "type": "address"
        }
      ],
      "name": "balanceOf",
      "outputs": [
        {
          "internalType": "uint256",
          "name": "",
          "type": "uint256"
        }
      ],
      "stateMutability": "view",
      "type": "function"
    },
    {
      "inputs": [],
      "name": "decimals",
      "outputs": [
        {
          "internalType": "uint8",
          "name": "",
          "type": "uint8"
        }
      ],
      "stateMutability": "view",
      "type": "function"
    },
    {
      "inputs": [
        {
          "internalType": "address",
          "name": "spender",
          "type": "address"
        },
        {
          "internalType": "uint256",
          "name": "subtractedValue",
          "type": "uint256"
        }
      ],
      "name": "decreaseAllowance",
      "outputs": [
        {
          "internalType": "bool",
          "name": "",
          "type": "bool"
        }
      ],
      "stateMutability": "nonpayable",
      "type": "function"
    },
    {
      "inputs": [
        {
          "internalType": "bytes32",
          "name": "role",
          "type": "bytes32"
        }
      ],
      "name": "getRoleAdmin",
      "outputs": [
        {
          "internalType": "bytes32",
          "name": "",
          "type": "bytes32"
        }
      ],
      "stateMutability": "view",
      "type": "function"
    },
    {
      "inputs": [
        {
          "internalType": "bytes32",
          "name": "role",
          "type": "bytes32"
        },
        {
          "internalType": "uint256",
          "name": "index",
          "type": "uint256"
        }
      ],
      "name": "getRoleMember",
      "outputs": [
        {
          "internalType": "address",
          "name": "",
          "type": "address"
        }
      ],
      "stateMutability": "view",
      "type": "function"
    },
    {
      "inputs": [
        {
          "internalType": "bytes32",
          "name": "role",
          "type": "bytes32"
        }
      ],
      "name": "getRoleMemberCount",
      "outputs": [
        {
          "internalType": "uint256",
          "name": "",
          "type": "uint256"
        }
      ],
      "stateMutability": "view",
      "type": "function"
    },
    {
      "inputs": [
        {
          "internalType": "bytes32",
          "name": "role",
          "type": "bytes32"
        },
        {
          "internalType": "address",
          "name": "account",
          "type": "address"
        }
      ],
      "name": "grantRole",
      "outputs": [],
      "stateMutability": "nonpayable",
      "type": "function"
    },
    {
      "inputs": [
        {
          "internalType": "bytes32",
          "name": "role",
          "type": "bytes32"
        },
        {
          "internalType": "address",
          "name": "account",
          "type": "address"
        }
      ],
      "name": "hasRole",
      "outputs": [
        {
          "internalType": "bool",
          "name": "",
          "type": "bool"
        }
      ],
      "stateMutability": "view",
      "type": "function"
    },
    {
      "inputs": [
        {
          "internalType": "address",
          "name": "spender",
          "type": "address"
        },
        {
          "internalType": "uint256",
          "name": "addedValue",
          "type": "uint256"
        }
      ],
      "name": "increaseAllowance",
      "outputs": [
        {
          "internalType": "bool",
          "name": "",
          "type": "bool"
        }
      ],
      "stateMutability": "nonpayable",
      "type": "function"
    },
    {
      "inputs": [
        {
          "internalType": "address",
          "name": "recipient",
          "type": "address"
        },
        {
          "internalType": "uint256",
          "name": "amount",
          "type": "uint256"
        }
      ],
      "name": "mintWithoutDecimals",
      "outputs": [],
      "stateMutability": "nonpayable",
      "type": "function"
    },
    {
      "inputs": [],
      "name": "name",
      "outputs": [
        {
          "internalType": "string",
          "name": "",
          "type": "string"
        }
      ],
      "stateMutability": "view",
      "type": "function"
    },
    {
      "inputs": [],
      "name": "pause",
      "outputs": [],
      "stateMutability": "nonpayable",
      "type": "function"
    },
    {
      "inputs": [],
      "name": "paused",
      "outputs": [
        {
          "internalType": "bool",
          "name": "",
          "type": "bool"
        }
      ],
      "stateMutability": "view",
      "type": "function"
    },
    {
      "inputs": [
        {
          "internalType": "bytes32",
          "name": "role",
          "type": "bytes32"
        },
        {
          "internalType": "address",
          "name": "account",
          "type": "address"
        }
      ],
      "name": "renounceRole",
      "outputs": [],
      "stateMutability": "nonpayable",
      "type": "function"
    },
    {
      "inputs": [
        {
          "internalType": "bytes32",
          "name": "role",
          "type": "bytes32"
        },
        {
          "internalType": "address",
          "name": "account",
          "type": "address"
        }
      ],
      "name": "revokeRole",
      "outputs": [],
      "stateMutability": "nonpayable",
      "type": "function"
    },
    {
      "inputs": [],
      "name": "symbol",
      "outputs": [
        {
          "internalType": "string",
          "name": "",
          "type": "string"
        }
      ],
      "stateMutability": "view",
      "type": "function"
    },
    {
      "inputs": [],
      "name": "totalSupply",
      "outputs": [
        {
          "internalType": "uint256",
          "name": "",
          "type": "uint256"
        }
      ],
      "stateMutability": "view",
      "type": "function"
    },
    {
      "inputs": [
        {
          "internalType": "address",
          "name": "recipient",
          "type": "address"
        },
        {
          "internalType": "uint256",
          "name": "amount",
          "type": "uint256"
        }
      ],
      "name": "transfer",
      "outputs": [
        {
          "internalType": "bool",
          "name": "",
          "type": "bool"
        }
      ],
      "stateMutability": "nonpayable",
      "type": "function"
    },
    {
      "inputs": [
        {
          "internalType": "address[]",
          "name": "recipients",
          "type": "address[]"
        },
        {
          "internalType": "uint256[]",
          "name": "amounts",
          "type": "uint256[]"
        }
      ],
      "name": "transferBatch",
      "outputs": [
        {
          "internalType": "bool",
          "name": "",
          "type": "bool"
        }
      ],
      "stateMutability": "nonpayable",
      "type": "function"
    },
    {
      "inputs": [
        {
          "internalType": "address",
          "name": "sender",
          "type": "address"
        },
        {
          "internalType": "address",
          "name": "recipient",
          "type": "address"
        },
        {
          "internalType": "uint256",
          "name": "amount",
          "type": "uint256"
        }
      ],
      "name": "transferFrom",
      "outputs": [
        {
          "internalType": "bool",
          "name": "",
          "type": "bool"
        }
      ],
      "stateMutability": "nonpayable",
      "type": "function"
    },
    {
      "inputs": [],
      "name": "unpause",
      "outputs": [],
      "stateMutability": "nonpayable",
      "type": "function"
    },
    {
      "inputs": [
        {
          "internalType": "string",
          "name": "name",
          "type": "string"
        },
        {
          "internalType": "string",
          "name": "symbol",
          "type": "string"
        }
      ],
      "name": "initialize",
      "outputs": [],
      "stateMutability": "nonpayable",
      "type": "function"
    }
  ],
  "bytecode": "0x608060405234801561001057600080fd5b50611f71806100206000396000f3fe608060405234801561001057600080fd5b50600436106101ae5760003560e01c80635c975abb116100ee578063a217fddf11610097578063ca15c87311610071578063ca15c873146106ad578063d547741f146106ca578063dd62ed3e146106f6578063e63ab1e914610724576101ae565b8063a217fddf1461064d578063a457c2d714610655578063a9059cbb14610681576101ae565b80639010d07c116100c85780639010d07c146105da57806391d148541461061957806395d89b4114610645576101ae565b80635c975abb146105a457806370a08231146105ac5780638456cb59146105d2576101ae565b8063313ce5671161015b5780633b3e672f116101355780633b3e672f146103815780633f4ba83a146104435780634cd88b761461044b5780634e01b0d014610578576101ae565b8063313ce5671461030b57806336568abe146103295780633950935114610355576101ae565b806323b872dd1161018c57806323b872dd1461028a578063248a9ca3146102c05780632f2ff15d146102dd576101ae565b806306fdde03146101b3578063095ea7b31461023057806318160ddd14610270575b600080fd5b6101bb61072c565b6040805160208082528351818301528351919283929083019185019080838360005b838110156101f55781810151838201526020016101dd565b50505050905090810190601f1680156102225780820380516001836020036101000a031916815260200191505b509250505060405180910390f35b61025c6004803603604081101561024657600080fd5b506001600160a01b0381351690602001356107c3565b604080519115158252519081900360200190f35b6102786107e1565b60408051918252519081900360200190f35b61025c600480360360608110156102a057600080fd5b506001600160a01b038135811691602081013590911690604001356107e7565b610278600480360360208110156102d657600080fd5b5035610874565b610309600480360360408110156102f357600080fd5b50803590602001356001600160a01b0316610889565b005b6103136108f5565b6040805160ff9092168252519081900360200190f35b6103096004803603604081101561033f57600080fd5b50803590602001356001600160a01b03166108fe565b61025c6004803603604081101561036b57600080fd5b506001600160a01b03813516906020013561095f565b61025c6004803603604081101561039757600080fd5b8101906020810181356401000000008111156103b257600080fd5b8201836020820111156103c457600080fd5b803590602001918460208302840111640100000000831117156103e657600080fd5b91939092909160208101903564010000000081111561040457600080fd5b82018360208201111561041657600080fd5b8035906020019184602083028401116401000000008311171561043857600080fd5b5090925090506109b3565b610309610b6b565b6103096004803603604081101561046157600080fd5b81019060208101813564010000000081111561047c57600080fd5b82018360208201111561048e57600080fd5b803590602001918460018302840111640100000000831117156104b057600080fd5b91908080601f016020809104026020016040519081016040528093929190818152602001838380828437600092019190915250929594936020810193503591505064010000000081111561050357600080fd5b82018360208201111561051557600080fd5b8035906020019184600183028401116401000000008311171561053757600080fd5b91908080601f016020809104026020016040519081016040528093929190818152602001838380828437600092019190915250929550610bdc945050505050565b6103096004803603604081101561058e57600080fd5b506001600160a01b038135169060200135610cb2565b61025c610d0e565b610278600480360360208110156105c257600080fd5b50356001600160a01b0316610d17565b610309610d32565b6105fd600480360360408110156105f057600080fd5b5080359060200135610da1565b604080516001600160a01b039092168252519081900360200190f35b61025c6004803603604081101561062f57600080fd5b50803590602001356001600160a01b0316610dc6565b6101bb610de4565b610278610e45565b61025c6004803603604081101561066b57600080fd5b506001600160a01b038135169060200135610e4a565b61025c6004803603604081101561069757600080fd5b506001600160a01b038135169060200135610eb8565b610278600480360360208110156106c357600080fd5b5035610ecc565b610309600480360360408110156106e057600080fd5b50803590602001356001600160a01b0316610ee3565b6102786004803603604081101561070c57600080fd5b506001600160a01b0381358116916020013516610f3c565b610278610f67565b609a8054604080516020601f60026000196101006001881615020190951694909404938401819004810282018101909252828152606093909290918301828280156107b85780601f1061078d576101008083540402835291602001916107b8565b820191906000526020600020905b81548152906001019060200180831161079b57829003601f168201915b505050505090505b90565b60006107d76107d0610f8a565b8484610f8e565b5060015b92915050565b60995490565b60006107f484848461107a565b61086a84610800610f8a565b61086585604051806060016040528060288152602001611dae602891396001600160a01b038a1660009081526098602052604081209061083e610f8a565b6001600160a01b03168152602081019190915260400160002054919063ffffffff6111e016565b610f8e565b5060019392505050565b60009081526065602052604090206002015490565b6000828152606560205260409020600201546108ac906108a7610f8a565b610dc6565b6108e75760405162461bcd60e51b815260040180806020018281038252602f815260200180611cd9602f913960400191505060405180910390fd5b6108f18282611277565b5050565b609c5460ff1690565b610906610f8a565b6001600160a01b0316816001600160a01b0316146109555760405162461bcd60e51b815260040180806020018281038252602f815260200180611f0d602f913960400191505060405180910390fd5b6108f182826112e6565b60006107d761096c610f8a565b84610865856098600061097d610f8a565b6001600160a01b03908116825260208083019390935260409182016000908120918c16815292529020549063ffffffff61135516565b60008382146109c157600080fd5b6109c96113af565b60006109d3610f8a565b6001600160a01b0381166000908152609760205260408120549192505b84811015610b45576000868683818110610a0657fe5b9050602002013590506000898984818110610a1d57fe5b905060200201356001600160a01b0316905081841015610a6e5760405162461bcd60e51b815260040180806020018281038252602e815260200180611d2a602e913960400191505060405180910390fd5b6001600160a01b038116610ab35760405162461bcd60e51b8152600401808060200182810382526023815260200180611c7e6023913960400191505060405180910390fd5b806001600160a01b0316856001600160a01b031614610af0576001600160a01b038116600090815260976020526040902080548301905592819003925b806001600160a01b0316856001600160a01b03167fddf252ad1be2c89b69c2b068fc378daa952ba7f163c4a11628f55a4df523b3ef846040518082815260200191505060405180910390a350506001016109f0565b506001600160a01b03909116600090815260976020526040902055506001949350505050565b604080516a5041555345525f524f4c4560a81b8152905190819003600b019020610b97906108a7610f8a565b610bd25760405162461bcd60e51b8152600401808060200182810382526038815260200180611ca16038913960400191505060405180910390fd5b610bda6113fb565b565b600054610100900460ff1680610bf55750610bf56114a2565b80610c03575060005460ff16155b610c3e5760405162461bcd60e51b815260040180806020018281038252602e815260200180611e0a602e913960400191505060405180910390fd5b600054610100900460ff16158015610c69576000805460ff1961ff0019909116610100171660011790555b610c716114a8565b610c796114a8565b610c83838361154a565b610c8b611622565b610c936116cd565b610c9b611798565b8015610cad576000805461ff00191690555b505050565b610cbf60006108a7610f8a565b610cfa5760405162461bcd60e51b8152600401808060200182810382526034815260200180611dd66034913960400191505060405180910390fd5b6108f18282670de0b6b3a764000002611846565b60c95460ff1690565b6001600160a01b031660009081526097602052604090205490565b604080516a5041555345525f524f4c4560a81b8152905190819003600b019020610d5e906108a7610f8a565b610d995760405162461bcd60e51b8152600401808060200182810382526036815260200180611e5d6036913960400191505060405180910390fd5b610bda611944565b6000828152606560205260408120610dbf908363ffffffff6119d216565b9392505050565b6000828152606560205260408120610dbf908363ffffffff6119de16565b609b8054604080516020601f60026000196101006001881615020190951694909404938401819004810282018101909252828152606093909290918301828280156107b85780601f1061078d576101008083540402835291602001916107b8565b600081565b60006107d7610e57610f8a565b8461086585604051806060016040528060258152602001611eb76025913960986000610e81610f8a565b6001600160a01b03908116825260208083019390935260409182016000908120918d1681529252902054919063ffffffff6111e016565b60006107d7610ec5610f8a565b848461107a565b60008181526065602052604081206107db906119f3565b600082815260656020526040902060020154610f01906108a7610f8a565b6109555760405162461bcd60e51b8152600401808060200182810382526030815260200180611d7e6030913960400191505060405180910390fd5b6001600160a01b03918216600090815260986020908152604080832093909416825291909152205490565b604080516a5041555345525f524f4c4560a81b8152905190819003600b01902081565b3390565b6001600160a01b038316610fd35760405162461bcd60e51b8152600401808060200182810382526024815260200180611e936024913960400191505060405180910390fd5b6001600160a01b0382166110185760405162461bcd60e51b8152600401808060200182810382526022815260200180611d086022913960400191505060405180910390fd5b6001600160a01b03808416600081815260986020908152604080832094871680845294825291829020859055815185815291517f8c5be1e5ebec7d5bd14f71427d1e84f3dd0314c0f7b2291e5b200ac8c7c3b9259281900390910190a3505050565b6001600160a01b0383166110bf5760405162461bcd60e51b8152600401808060200182810382526025815260200180611e386025913960400191505060405180910390fd5b6001600160a01b0382166111045760405162461bcd60e51b8152600401808060200182810382526023815260200180611c7e6023913960400191505060405180910390fd5b61110c6113af565b61114f81604051806060016040528060268152602001611d58602691396001600160a01b038616600090815260976020526040902054919063ffffffff6111e016565b6001600160a01b038085166000908152609760205260408082209390935590841681522054611184908263ffffffff61135516565b6001600160a01b0380841660008181526097602090815260409182902094909455805185815290519193928716927fddf252ad1be2c89b69c2b068fc378daa952ba7f163c4a11628f55a4df523b3ef92918290030190a3505050565b6000818484111561126f5760405162461bcd60e51b81526004018080602001828103825283818151815260200191508051906020019080838360005b8381101561123457818101518382015260200161121c565b50505050905090810190601f1680156112615780820380516001836020036101000a031916815260200191505b509250505060405180910390fd5b505050900390565b6000828152606560205260409020611295908263ffffffff6119fe16565b156108f1576112a2610f8a565b6001600160a01b0316816001600160a01b0316837f2f8788117e7eff1d82e926ec794901d17c78024a50270940304540a733656f0d60405160405180910390a45050565b6000828152606560205260409020611304908263ffffffff611a1316565b156108f157611311610f8a565b6001600160a01b0316816001600160a01b0316837ff6391f5c32d9c69d2a47ea670b442974b53935d1edc7fd64eb21e047a839171b60405160405180910390a45050565b600082820183811015610dbf576040805162461bcd60e51b815260206004820152601b60248201527f536166654d6174683a206164646974696f6e206f766572666c6f770000000000604482015290519081900360640190fd5b6113b7610bda565b6113bf610d0e565b15610bda5760405162461bcd60e51b8152600401808060200182810382526031815260200180611edc6031913960400191505060405180910390fd5b60c95460ff16611452576040805162461bcd60e51b815260206004820152601460248201527f5061757361626c653a206e6f7420706175736564000000000000000000000000604482015290519081900360640190fd5b60c9805460ff191690557f5db9ee0a495bf2e6ff9c91a7834c1ba4fdd244a5e8aa4e537bd38aeae4b073aa611485610f8a565b604080516001600160a01b039092168252519081900360200190a1565b303b1590565b600054610100900460ff16806114c157506114c16114a2565b806114cf575060005460ff16155b61150a5760405162461bcd60e51b815260040180806020018281038252602e815260200180611e0a602e913960400191505060405180910390fd5b600054610100900460ff16158015611535576000805460ff1961ff0019909116610100171660011790555b8015611547576000805461ff00191690555b50565b600054610100900460ff168061156357506115636114a2565b80611571575060005460ff16155b6115ac5760405162461bcd60e51b815260040180806020018281038252602e815260200180611e0a602e913960400191505060405180910390fd5b600054610100900460ff161580156115d7576000805460ff1961ff0019909116610100171660011790555b82516115ea90609a906020860190611bc3565b5081516115fe90609b906020850190611bc3565b50609c805460ff191660121790558015610cad576000805461ff0019169055505050565b600054610100900460ff168061163b575061163b6114a2565b80611649575060005460ff16155b6116845760405162461bcd60e51b815260040180806020018281038252602e815260200180611e0a602e913960400191505060405180910390fd5b600054610100900460ff161580156116af576000805460ff1961ff0019909116610100171660011790555b60c9805460ff191690558015611547576000805461ff001916905550565b600054610100900460ff16806116e657506116e66114a2565b806116f4575060005460ff16155b61172f5760405162461bcd60e51b815260040180806020018281038252602e815260200180611e0a602e913960400191505060405180910390fd5b600054610100900460ff1615801561175a576000805460ff1961ff0019909116610100171660011790555b61176c6000611767610f8a565b6108e7565b604080516a5041555345525f524f4c4560a81b8152905190819003600b01902061153590611767610f8a565b600054610100900460ff16806117b157506117b16114a2565b806117bf575060005460ff16155b6117fa5760405162461bcd60e51b815260040180806020018281038252602e815260200180611e0a602e913960400191505060405180910390fd5b600054610100900460ff16158015611825576000805460ff1961ff0019909116610100171660011790555b6b019d971e4fe8401e7400000061012d55611535611841610f8a565b61012d545b6001600160a01b0382166118a1576040805162461bcd60e51b815260206004820152601f60248201527f45524332303a206d696e7420746f20746865207a65726f206164647265737300604482015290519081900360640190fd5b6118ad60008383611a28565b6099546118c0908263ffffffff61135516565b6099556001600160a01b0382166000908152609760205260409020546118ec908263ffffffff61135516565b6001600160a01b03831660008181526097602090815260408083209490945583518581529351929391927fddf252ad1be2c89b69c2b068fc378daa952ba7f163c4a11628f55a4df523b3ef9281900390910190a35050565b60c95460ff161561199c576040805162461bcd60e51b815260206004820152601060248201527f5061757361626c653a2070617573656400000000000000000000000000000000604482015290519081900360640190fd5b60c9805460ff191660011790557f62e78cea01bee320cd4e420270b5ea74000d11b0c9f74754ebdbfc544b05a258611485610f8a565b6000610dbf8383611a33565b6000610dbf836001600160a01b038416611a97565b60006107db82611aaf565b6000610dbf836001600160a01b038416611ab3565b6000610dbf836001600160a01b038416611afd565b610cad838383610cad565b81546000908210611a755760405162461bcd60e51b8152600401808060200182810382526022815260200180611c5c6022913960400191505060405180910390fd5b826000018281548110611a8457fe5b9060005260206000200154905092915050565b60009081526001919091016020526040902054151590565b5490565b6000611abf8383611a97565b611af5575081546001818101845560008481526020808220909301849055845484825282860190935260409020919091556107db565b5060006107db565b60008181526001830160205260408120548015611bb95783546000198083019190810190600090879083908110611b3057fe5b9060005260206000200154905080876000018481548110611b4d57fe5b600091825260208083209091019290925582815260018981019092526040902090840190558654879080611b7d57fe5b600190038181906000526020600020016000905590558660010160008781526020019081526020016000206000905560019450505050506107db565b60009150506107db565b828054600181600116156101000203166002900490600052602060002090601f016020900481019282601f10611c0457805160ff1916838001178555611c31565b82800160010185558215611c31579182015b82811115611c31578251825591602001919060010190611c16565b50611c3d929150611c41565b5090565b6107c091905b80821115611c3d5760008155600101611c4756fe456e756d657261626c655365743a20696e646578206f7574206f6620626f756e647345524332303a207472616e7366657220746f20746865207a65726f2061646472657373506175736561626c65456e68616e63656445524332303a206d75737420686176652070617573657220726f6c6520746f20756e7061757365416363657373436f6e74726f6c3a2073656e646572206d75737420626520616e2061646d696e20746f206772616e7445524332303a20617070726f766520746f20746865207a65726f206164647265737345524332303a20496e73756666696369656e742062616c616e636520666f72206261746368207472616e7366657245524332303a207472616e7366657220616d6f756e7420657863656564732062616c616e6365416363657373436f6e74726f6c3a2073656e646572206d75737420626520616e2061646d696e20746f207265766f6b6545524332303a207472616e7366657220616d6f756e74206578636565647320616c6c6f77616e6365506175736561626c65456e68616e63656445524332303a206d75737420686176652061646d696e20726f6c6520746f206d696e74436f6e747261637420696e7374616e63652068617320616c7265616479206265656e20696e697469616c697a656445524332303a207472616e736665722066726f6d20746865207a65726f2061646472657373506175736561626c65456e68616e63656445524332303a206d75737420686176652070617573657220726f6c6520746f20706175736545524332303a20617070726f76652066726f6d20746865207a65726f206164647265737345524332303a2064656372656173656420616c6c6f77616e63652062656c6f77207a65726f4d616e61676564456e68616e63656445524332303a20746f6b656e207472616e73666572207768696c6520706175736564416363657373436f6e74726f6c3a2063616e206f6e6c792072656e6f756e636520726f6c657320666f722073656c66a26469706673582212203c3aeacb79255931967503b35e313cf6a1f18d64ad4dcb2d4d7b05c45833505b64736f6c63430006020033",
  "source": "pragma solidity 0.6.2;\n\nimport \"@openzeppelin/contracts-ethereum-package/contracts/Initializable.sol\";\nimport \"@openzeppelin/contracts-ethereum-package/contracts/math/SafeMath.sol\";\nimport \"./ManagedEnhancedERC20.sol\";\n\n/**\n * @dev Presearch ERC20 Token\n *\n * Supply capped at 500M.\n */\ncontract PRETokenV2 is Initializable, ManagedEnhancedERC20  {\n    using SafeMath for uint256;\n\n    uint256 private _maxSupply;\n\n    function initialize(string memory name, string memory symbol) public initializer {\n        __Context_init_unchained();\n        __AccessControl_init_unchained();\n        __ERC20_init_unchained(name, symbol);\n        __Pausable_init_unchained();\n        __ManagedEnhancedERC20_init_unchained();\n        __PREToken_init_unchained(); \n    }\n\n    function __PREToken_init_unchained() internal initializer {\n        _maxSupply = 500000000e18;\n        _mint(_msgSender(), _maxSupply); \n    }\n\n    function _beforeMint(address from, address to, uint256 amount) internal virtual override {\n        super._beforeMint(from, to, amount);\n    }\n\n}\n",
  "sourcePath": "/Users/selimerunkut/dev_novem/PRE-Token/contracts/PRETokenV2.sol",
  "compiler": {
    "name": "solc",
    "version": "0.6.2+commit.bacdbe57.Emscripten.clang"
  },
  "schemaVersion": "3.3.1",
  "updatedAt": "2020-11-14T14:52:45.592Z",
  "devdoc": {
    "details": "Presearch ERC20 Token * Supply capped at 500M.",
    "methods": {
      "allowance(address,address)": {
        "details": "See {IERC20-allowance}."
      },
      "approve(address,uint256)": {
        "details": "See {IERC20-approve}.     * Requirements:     * - `spender` cannot be the zero address."
      },
      "balanceOf(address)": {
        "details": "See {IERC20-balanceOf}."
      },
      "decimals()": {
        "details": "Returns the number of decimals used to get its user representation. For example, if `decimals` equals `2`, a balance of `505` tokens should be displayed to a user as `5,05` (`505 / 10 ** 2`).     * Tokens usually opt for a value of 18, imitating the relationship between Ether and Wei. This is the value {ERC20} uses, unless {_setupDecimals} is called.     * NOTE: This information is only used for _display_ purposes: it in no way affects any of the arithmetic of the contract, including {IERC20-balanceOf} and {IERC20-transfer}."
      },
      "decreaseAllowance(address,uint256)": {
        "details": "Atomically decreases the allowance granted to `spender` by the caller.     * This is an alternative to {approve} that can be used as a mitigation for problems described in {IERC20-approve}.     * Emits an {Approval} event indicating the updated allowance.     * Requirements:     * - `spender` cannot be the zero address. - `spender` must have allowance for the caller of at least `subtractedValue`."
      },
      "getRoleAdmin(bytes32)": {
        "details": "Returns the admin role that controls `role`. See {grantRole} and {revokeRole}.     * To change a role's admin, use {_setRoleAdmin}."
      },
      "getRoleMember(bytes32,uint256)": {
        "details": "Returns one of the accounts that have `role`. `index` must be a value between 0 and {getRoleMemberCount}, non-inclusive.     * Role bearers are not sorted in any particular way, and their ordering may change at any point.     * WARNING: When using {getRoleMember} and {getRoleMemberCount}, make sure you perform all queries on the same block. See the following https://forum.openzeppelin.com/t/iterating-over-elements-on-enumerableset-in-openzeppelin-contracts/2296[forum post] for more information."
      },
      "getRoleMemberCount(bytes32)": {
        "details": "Returns the number of accounts that have `role`. Can be used together with {getRoleMember} to enumerate all bearers of a role."
      },
      "grantRole(bytes32,address)": {
        "details": "Grants `role` to `account`.     * If `account` had not been already granted `role`, emits a {RoleGranted} event.     * Requirements:     * - the caller must have ``role``'s admin role."
      },
      "hasRole(bytes32,address)": {
        "details": "Returns `true` if `account` has been granted `role`."
      },
      "increaseAllowance(address,uint256)": {
        "details": "Atomically increases the allowance granted to `spender` by the caller.     * This is an alternative to {approve} that can be used as a mitigation for problems described in {IERC20-approve}.     * Emits an {Approval} event indicating the updated allowance.     * Requirements:     * - `spender` cannot be the zero address."
      },
      "name()": {
        "details": "Returns the name of the token."
      },
      "pause()": {
        "details": "Pauses all token transfers.     * See {ERC20Pausable} and {Pausable-_pause}.     * Requirements:     * - the caller must have the `PAUSER_ROLE`."
      },
      "paused()": {
        "details": "Returns true if the contract is paused, and false otherwise."
      },
      "renounceRole(bytes32,address)": {
        "details": "Revokes `role` from the calling account.     * Roles are often managed via {grantRole} and {revokeRole}: this function's purpose is to provide a mechanism for accounts to lose their privileges if they are compromised (such as when a trusted device is misplaced).     * If the calling account had been granted `role`, emits a {RoleRevoked} event.     * Requirements:     * - the caller must be `account`."
      },
      "revokeRole(bytes32,address)": {
        "details": "Revokes `role` from `account`.     * If `account` had been granted `role`, emits a {RoleRevoked} event.     * Requirements:     * - the caller must have ``role``'s admin role."
      },
      "symbol()": {
        "details": "Returns the symbol of the token, usually a shorter version of the name."
      },
      "totalSupply()": {
        "details": "See {IERC20-totalSupply}."
      },
      "transfer(address,uint256)": {
        "details": "See {IERC20-transfer}.     * Requirements:     * - `recipient` cannot be the zero address. - the caller must have a balance of at least `amount`."
      },
      "transferBatch(address[],uint256[])": {
        "details": "Send multiple transfers as a batch within a single transaction This is much more efficient than sending independent transactions.  This method should between 28% of gas (2 transfers)  and 50%-60% of gas (10+ transfers)     * Calling conditions:     * Emits an {Transfer} event for each individual successful transfer.     * Requirements:     * - `recipients[]` length must equal  `amounts[]` length. -  The amount to send `recipients[i]` must be at `amounts[i]` - `recipient` cannot be the zero address. - `balance` of the calling account must be >= the sum of values in `amounts` going to other accounts"
      },
      "transferFrom(address,address,uint256)": {
        "details": "See {IERC20-transferFrom}.     * Emits an {Approval} event indicating the updated allowance. This is not required by the EIP. See the note at the beginning of {ERC20};     * Requirements: - `sender` and `recipient` cannot be the zero address. - `sender` must have a balance of at least `amount`. - the caller must have allowance for ``sender``'s tokens of at least `amount`."
      },
      "unpause()": {
        "details": "Unpauses all token transfers.     * See {ERC20Pausable} and {Pausable-_unpause}.     * Requirements:     * - the caller must have the `PAUSER_ROLE`."
      }
    }
  },
  "userdoc": {
    "methods": {}
  }
}