{
  "contractName": "PRETokenV5",
  "abi": [
    {
      "anonymous": false,
      "inputs": [
        {
          "indexed": true,
          "internalType": "address",
          "name": "owner",
          "type": "address"
        },
        {
          "indexed": true,
          "internalType": "address",
          "name": "spender",
          "type": "address"
        },
        {
          "indexed": false,
          "internalType": "uint256",
          "name": "value",
          "type": "uint256"
        }
      ],
      "name": "Approval",
      "type": "event"
    },
    {
      "anonymous": false,
      "inputs": [
        {
          "indexed": false,
          "internalType": "address",
          "name": "account",
          "type": "address"
        }
      ],
      "name": "Paused",
      "type": "event"
    },
    {
      "anonymous": false,
      "inputs": [
        {
          "indexed": true,
          "internalType": "bytes32",
          "name": "role",
          "type": "bytes32"
        },
        {
          "indexed": true,
          "internalType": "address",
          "name": "account",
          "type": "address"
        },
        {
          "indexed": true,
          "internalType": "address",
          "name": "sender",
          "type": "address"
        }
      ],
      "name": "RoleGranted",
      "type": "event"
    },
    {
      "anonymous": false,
      "inputs": [
        {
          "indexed": true,
          "internalType": "bytes32",
          "name": "role",
          "type": "bytes32"
        },
        {
          "indexed": true,
          "internalType": "address",
          "name": "account",
          "type": "address"
        },
        {
          "indexed": true,
          "internalType": "address",
          "name": "sender",
          "type": "address"
        }
      ],
      "name": "RoleRevoked",
      "type": "event"
    },
    {
      "anonymous": false,
      "inputs": [
        {
          "indexed": true,
          "internalType": "address",
          "name": "from",
          "type": "address"
        },
        {
          "indexed": true,
          "internalType": "address",
          "name": "to",
          "type": "address"
        },
        {
          "indexed": false,
          "internalType": "uint256",
          "name": "value",
          "type": "uint256"
        }
      ],
      "name": "Transfer",
      "type": "event"
    },
    {
      "anonymous": false,
      "inputs": [
        {
          "indexed": false,
          "internalType": "address",
          "name": "account",
          "type": "address"
        }
      ],
      "name": "Unpaused",
      "type": "event"
    },
    {
      "inputs": [],
      "name": "DEFAULT_ADMIN_ROLE",
      "outputs": [
        {
          "internalType": "bytes32",
          "name": "",
          "type": "bytes32"
        }
      ],
      "stateMutability": "view",
      "type": "function"
    },
    {
      "inputs": [],
      "name": "PAUSER_ROLE",
      "outputs": [
        {
          "internalType": "bytes32",
          "name": "",
          "type": "bytes32"
        }
      ],
      "stateMutability": "view",
      "type": "function"
    },
    {
      "inputs": [
        {
          "internalType": "address",
          "name": "owner",
          "type": "address"
        },
        {
          "internalType": "address",
          "name": "spender",
          "type": "address"
        }
      ],
      "name": "allowance",
      "outputs": [
        {
          "internalType": "uint256",
          "name": "",
          "type": "uint256"
        }
      ],
      "stateMutability": "view",
      "type": "function"
    },
    {
      "inputs": [
        {
          "internalType": "address",
          "name": "spender",
          "type": "address"
        },
        {
          "internalType": "uint256",
          "name": "amount",
          "type": "uint256"
        }
      ],
      "name": "approve",
      "outputs": [
        {
          "internalType": "bool",
          "name": "",
          "type": "bool"
        }
      ],
      "stateMutability": "nonpayable",
      "type": "function"
    },
    {
      "inputs": [
        {
          "internalType": "address",
          "name": "account",
          "type": "address"
        }
      ],
      "name": "balanceOf",
      "outputs": [
        {
          "internalType": "uint256",
          "name": "",
          "type": "uint256"
        }
      ],
      "stateMutability": "view",
      "type": "function"
    },
    {
      "inputs": [],
      "name": "decimals",
      "outputs": [
        {
          "internalType": "uint8",
          "name": "",
          "type": "uint8"
        }
      ],
      "stateMutability": "view",
      "type": "function"
    },
    {
      "inputs": [
        {
          "internalType": "address",
          "name": "spender",
          "type": "address"
        },
        {
          "internalType": "uint256",
          "name": "subtractedValue",
          "type": "uint256"
        }
      ],
      "name": "decreaseAllowance",
      "outputs": [
        {
          "internalType": "bool",
          "name": "",
          "type": "bool"
        }
      ],
      "stateMutability": "nonpayable",
      "type": "function"
    },
    {
      "inputs": [],
      "name": "feeAddress",
      "outputs": [
        {
          "internalType": "address",
          "name": "",
          "type": "address"
        }
      ],
      "stateMutability": "view",
      "type": "function"
    },
    {
      "inputs": [
        {
          "internalType": "bytes32",
          "name": "role",
          "type": "bytes32"
        }
      ],
      "name": "getRoleAdmin",
      "outputs": [
        {
          "internalType": "bytes32",
          "name": "",
          "type": "bytes32"
        }
      ],
      "stateMutability": "view",
      "type": "function"
    },
    {
      "inputs": [
        {
          "internalType": "bytes32",
          "name": "role",
          "type": "bytes32"
        },
        {
          "internalType": "uint256",
          "name": "index",
          "type": "uint256"
        }
      ],
      "name": "getRoleMember",
      "outputs": [
        {
          "internalType": "address",
          "name": "",
          "type": "address"
        }
      ],
      "stateMutability": "view",
      "type": "function"
    },
    {
      "inputs": [
        {
          "internalType": "bytes32",
          "name": "role",
          "type": "bytes32"
        }
      ],
      "name": "getRoleMemberCount",
      "outputs": [
        {
          "internalType": "uint256",
          "name": "",
          "type": "uint256"
        }
      ],
      "stateMutability": "view",
      "type": "function"
    },
    {
      "inputs": [
        {
          "internalType": "bytes32",
          "name": "role",
          "type": "bytes32"
        },
        {
          "internalType": "address",
          "name": "account",
          "type": "address"
        }
      ],
      "name": "grantRole",
      "outputs": [],
      "stateMutability": "nonpayable",
      "type": "function"
    },
    {
      "inputs": [
        {
          "internalType": "bytes32",
          "name": "role",
          "type": "bytes32"
        },
        {
          "internalType": "address",
          "name": "account",
          "type": "address"
        }
      ],
      "name": "hasRole",
      "outputs": [
        {
          "internalType": "bool",
          "name": "",
          "type": "bool"
        }
      ],
      "stateMutability": "view",
      "type": "function"
    },
    {
      "inputs": [
        {
          "internalType": "address",
          "name": "spender",
          "type": "address"
        },
        {
          "internalType": "uint256",
          "name": "addedValue",
          "type": "uint256"
        }
      ],
      "name": "increaseAllowance",
      "outputs": [
        {
          "internalType": "bool",
          "name": "",
          "type": "bool"
        }
      ],
      "stateMutability": "nonpayable",
      "type": "function"
    },
    {
      "inputs": [
        {
          "internalType": "address",
          "name": "recipient",
          "type": "address"
        },
        {
          "internalType": "uint256",
          "name": "amount",
          "type": "uint256"
        }
      ],
      "name": "mintWithoutDecimals",
      "outputs": [],
      "stateMutability": "nonpayable",
      "type": "function"
    },
    {
      "inputs": [],
      "name": "name",
      "outputs": [
        {
          "internalType": "string",
          "name": "",
          "type": "string"
        }
      ],
      "stateMutability": "view",
      "type": "function"
    },
    {
      "inputs": [],
      "name": "pause",
      "outputs": [],
      "stateMutability": "nonpayable",
      "type": "function"
    },
    {
      "inputs": [],
      "name": "paused",
      "outputs": [
        {
          "internalType": "bool",
          "name": "",
          "type": "bool"
        }
      ],
      "stateMutability": "view",
      "type": "function"
    },
    {
      "inputs": [
        {
          "internalType": "bytes32",
          "name": "role",
          "type": "bytes32"
        },
        {
          "internalType": "address",
          "name": "account",
          "type": "address"
        }
      ],
      "name": "renounceRole",
      "outputs": [],
      "stateMutability": "nonpayable",
      "type": "function"
    },
    {
      "inputs": [
        {
          "internalType": "bytes32",
          "name": "role",
          "type": "bytes32"
        },
        {
          "internalType": "address",
          "name": "account",
          "type": "address"
        }
      ],
      "name": "revokeRole",
      "outputs": [],
      "stateMutability": "nonpayable",
      "type": "function"
    },
    {
      "inputs": [],
      "name": "symbol",
      "outputs": [
        {
          "internalType": "string",
          "name": "",
          "type": "string"
        }
      ],
      "stateMutability": "view",
      "type": "function"
    },
    {
      "inputs": [],
      "name": "tokenTransferFeeDivisor",
      "outputs": [
        {
          "internalType": "uint32",
          "name": "",
          "type": "uint32"
        }
      ],
      "stateMutability": "view",
      "type": "function"
    },
    {
      "inputs": [],
      "name": "totalSupply",
      "outputs": [
        {
          "internalType": "uint256",
          "name": "",
          "type": "uint256"
        }
      ],
      "stateMutability": "view",
      "type": "function"
    },
    {
      "inputs": [
        {
          "internalType": "address[]",
          "name": "recipients",
          "type": "address[]"
        },
        {
          "internalType": "uint256[]",
          "name": "amounts",
          "type": "uint256[]"
        }
      ],
      "name": "transferBatch",
      "outputs": [
        {
          "internalType": "bool",
          "name": "",
          "type": "bool"
        }
      ],
      "stateMutability": "nonpayable",
      "type": "function"
    },
    {
      "inputs": [
        {
          "internalType": "address",
          "name": "sender",
          "type": "address"
        },
        {
          "internalType": "address",
          "name": "recipient",
          "type": "address"
        },
        {
          "internalType": "uint256",
          "name": "amount",
          "type": "uint256"
        }
      ],
      "name": "transferFrom",
      "outputs": [
        {
          "internalType": "bool",
          "name": "",
          "type": "bool"
        }
      ],
      "stateMutability": "nonpayable",
      "type": "function"
    },
    {
      "inputs": [],
      "name": "unpause",
      "outputs": [],
      "stateMutability": "nonpayable",
      "type": "function"
    },
    {
      "inputs": [
        {
          "internalType": "string",
          "name": "name",
          "type": "string"
        },
        {
          "internalType": "string",
          "name": "symbol",
          "type": "string"
        }
      ],
      "name": "initialize",
      "outputs": [],
      "stateMutability": "nonpayable",
      "type": "function"
    },
    {
      "inputs": [
        {
          "internalType": "address",
          "name": "recipient",
          "type": "address"
        },
        {
          "internalType": "uint256",
          "name": "amount",
          "type": "uint256"
        }
      ],
      "name": "transfer",
      "outputs": [
        {
          "internalType": "bool",
          "name": "",
          "type": "bool"
        }
      ],
      "stateMutability": "nonpayable",
      "type": "function"
    }
  ],
  "bytecode": "0x608060405234801561001057600080fd5b50612260806100206000396000f3fe608060405234801561001057600080fd5b50600436106101c45760003560e01c80634e01b0d0116100f9578063a217fddf11610097578063ca15c87311610071578063ca15c873146106ec578063d547741f14610709578063dd62ed3e14610735578063e63ab1e914610763576101c4565b8063a217fddf1461068c578063a457c2d714610694578063a9059cbb146106c0576101c4565b80638456cb59116100d35780638456cb591461062d5780639010d07c1461063557806391d148541461065857806395d89b4114610684576101c4565b80634e01b0d0146105d35780635c975abb146105ff57806370a0823114610607576101c4565b8063313ce567116101665780633b3e672f116101405780633b3e672f146103b85780633f4ba83a1461047a57806341275358146104825780634cd88b76146104a6576101c4565b8063313ce5671461034257806336568abe14610360578063395093511461038c576101c4565b806318160ddd116101a257806318160ddd146102a757806323b872dd146102c1578063248a9ca3146102f75780632f2ff15d14610314576101c4565b806306fdde03146101c9578063095ea7b3146102465780631804cb0414610286575b600080fd5b6101d161076b565b6040805160208082528351818301528351919283929083019185019080838360005b8381101561020b5781810151838201526020016101f3565b50505050905090810190601f1680156102385780820380516001836020036101000a031916815260200191505b509250505060405180910390f35b6102726004803603604081101561025c57600080fd5b506001600160a01b038135169060200135610802565b604080519115158252519081900360200190f35b61028e610820565b6040805163ffffffff9092168252519081900360200190f35b6102af61082d565b60408051918252519081900360200190f35b610272600480360360608110156102d757600080fd5b506001600160a01b03813581169160208101359091169060400135610833565b6102af6004803603602081101561030d57600080fd5b50356108c0565b6103406004803603604081101561032a57600080fd5b50803590602001356001600160a01b03166108d5565b005b61034a610941565b6040805160ff9092168252519081900360200190f35b6103406004803603604081101561037657600080fd5b50803590602001356001600160a01b031661094a565b610272600480360360408110156103a257600080fd5b506001600160a01b0381351690602001356109ab565b610272600480360360408110156103ce57600080fd5b8101906020810181356401000000008111156103e957600080fd5b8201836020820111156103fb57600080fd5b8035906020019184602083028401116401000000008311171561041d57600080fd5b91939092909160208101903564010000000081111561043b57600080fd5b82018360208201111561044d57600080fd5b8035906020019184602083028401116401000000008311171561046f57600080fd5b5090925090506109ff565b610340610bb7565b61048a610c28565b604080516001600160a01b039092168252519081900360200190f35b610340600480360360408110156104bc57600080fd5b8101906020810181356401000000008111156104d757600080fd5b8201836020820111156104e957600080fd5b8035906020019184600183028401116401000000008311171561050b57600080fd5b91908080601f016020809104026020016040519081016040528093929190818152602001838380828437600092019190915250929594936020810193503591505064010000000081111561055e57600080fd5b82018360208201111561057057600080fd5b8035906020019184600183028401116401000000008311171561059257600080fd5b91908080601f016020809104026020016040519081016040528093929190818152602001838380828437600092019190915250929550610c40945050505050565b610340600480360360408110156105e957600080fd5b506001600160a01b038135169060200135610d1e565b610272610d7a565b6102af6004803603602081101561061d57600080fd5b50356001600160a01b0316610d83565b610340610d9e565b61048a6004803603604081101561064b57600080fd5b5080359060200135610e0d565b6102726004803603604081101561066e57600080fd5b50803590602001356001600160a01b0316610e32565b6101d1610e50565b6102af610eb1565b610272600480360360408110156106aa57600080fd5b506001600160a01b038135169060200135610eb6565b610272600480360360408110156106d657600080fd5b506001600160a01b038135169060200135610f24565b6102af6004803603602081101561070257600080fd5b5035610fd4565b6103406004803603604081101561071f57600080fd5b50803590602001356001600160a01b0316610feb565b6102af6004803603604081101561074b57600080fd5b506001600160a01b0381358116916020013516611044565b6102af61106f565b609a8054604080516020601f60026000196101006001881615020190951694909404938401819004810282018101909252828152606093909290918301828280156107f75780601f106107cc576101008083540402835291602001916107f7565b820191906000526020600020905b8154815290600101906020018083116107da57829003601f168201915b505050505090505b90565b600061081661080f611092565b8484611096565b5060015b92915050565b61012e5463ffffffff1681565b60995490565b6000610840848484611182565b6108b68461084c611092565b6108b18560405180606001604052806028815260200161209d602891396001600160a01b038a1660009081526098602052604081209061088a611092565b6001600160a01b03168152602081019190915260400160002054919063ffffffff6112e816565b611096565b5060019392505050565b60009081526065602052604090206002015490565b6000828152606560205260409020600201546108f8906108f3611092565b610e32565b6109335760405162461bcd60e51b815260040180806020018281038252602f815260200180611fc8602f913960400191505060405180910390fd5b61093d828261137f565b5050565b609c5460ff1690565b610952611092565b6001600160a01b0316816001600160a01b0316146109a15760405162461bcd60e51b815260040180806020018281038252602f8152602001806121fc602f913960400191505060405180910390fd5b61093d82826113ee565b60006108166109b8611092565b846108b185609860006109c9611092565b6001600160a01b03908116825260208083019390935260409182016000908120918c16815292529020549063ffffffff61145d16565b6000838214610a0d57600080fd5b610a156114b7565b6000610a1f611092565b6001600160a01b0381166000908152609760205260408120549192505b84811015610b91576000868683818110610a5257fe5b9050602002013590506000898984818110610a6957fe5b905060200201356001600160a01b0316905081841015610aba5760405162461bcd60e51b815260040180806020018281038252602e815260200180612019602e913960400191505060405180910390fd5b6001600160a01b038116610aff5760405162461bcd60e51b8152600401808060200182810382526023815260200180611f6d6023913960400191505060405180910390fd5b806001600160a01b0316856001600160a01b031614610b3c576001600160a01b038116600090815260976020526040902080548301905592819003925b806001600160a01b0316856001600160a01b03167fddf252ad1be2c89b69c2b068fc378daa952ba7f163c4a11628f55a4df523b3ef846040518082815260200191505060405180910390a35050600101610a3c565b506001600160a01b03909116600090815260976020526040902055506001949350505050565b604080516a5041555345525f524f4c4560a81b8152905190819003600b019020610be3906108f3611092565b610c1e5760405162461bcd60e51b8152600401808060200182810382526038815260200180611f906038913960400191505060405180910390fd5b610c26611503565b565b61012e5464010000000090046001600160a01b031681565b600054610100900460ff1680610c595750610c596115aa565b80610c67575060005460ff16155b610ca25760405162461bcd60e51b815260040180806020018281038252602e8152602001806120f9602e913960400191505060405180910390fd5b600054610100900460ff16158015610ccd576000805460ff1961ff0019909116610100171660011790555b610cd56115b0565b610cdd6115b0565b610ce78383611652565b610cef61172a565b610cf76117d5565b610cff6118a0565b610d07611952565b8015610d19576000805461ff00191690555b505050565b610d2b60006108f3611092565b610d665760405162461bcd60e51b81526004018080602001828103825260348152602001806120c56034913960400191505060405180910390fd5b61093d8282670de0b6b3a764000002611a43565b60c95460ff1690565b6001600160a01b031660009081526097602052604090205490565b604080516a5041555345525f524f4c4560a81b8152905190819003600b019020610dca906108f3611092565b610e055760405162461bcd60e51b815260040180806020018281038252603681526020018061214c6036913960400191505060405180910390fd5b610c26611b41565b6000828152606560205260408120610e2b908363ffffffff611bcf16565b9392505050565b6000828152606560205260408120610e2b908363ffffffff611bdb16565b609b8054604080516020601f60026000196101006001881615020190951694909404938401819004810282018101909252828152606093909290918301828280156107f75780601f106107cc576101008083540402835291602001916107f7565b600081565b6000610816610ec3611092565b846108b1856040518060600160405280602581526020016121a66025913960986000610eed611092565b6001600160a01b03908116825260208083019390935260409182016000908120918d1681529252902054919063ffffffff6112e816565b61012e80546107d063ffffffff19909116177fffffffffffffffff0000000000000000000000000000000000000000ffffffff1677feff5513b45a48d0de4f5e277ed22973a9389e0b0000000017908190556000908190610f9090849063ffffffff90811690611bf016565b61012e54909150610fb29064010000000090046001600160a01b031682611c32565b50610fcc84610fc7858463ffffffff611c4616565b611c32565b949350505050565b600081815260656020526040812061081a90611c88565b600082815260656020526040902060020154611009906108f3611092565b6109a15760405162461bcd60e51b815260040180806020018281038252603081526020018061206d6030913960400191505060405180910390fd5b6001600160a01b03918216600090815260986020908152604080832093909416825291909152205490565b604080516a5041555345525f524f4c4560a81b8152905190819003600b01902081565b3390565b6001600160a01b0383166110db5760405162461bcd60e51b81526004018080602001828103825260248152602001806121826024913960400191505060405180910390fd5b6001600160a01b0382166111205760405162461bcd60e51b8152600401808060200182810382526022815260200180611ff76022913960400191505060405180910390fd5b6001600160a01b03808416600081815260986020908152604080832094871680845294825291829020859055815185815291517f8c5be1e5ebec7d5bd14f71427d1e84f3dd0314c0f7b2291e5b200ac8c7c3b9259281900390910190a3505050565b6001600160a01b0383166111c75760405162461bcd60e51b81526004018080602001828103825260258152602001806121276025913960400191505060405180910390fd5b6001600160a01b03821661120c5760405162461bcd60e51b8152600401808060200182810382526023815260200180611f6d6023913960400191505060405180910390fd5b6112146114b7565b61125781604051806060016040528060268152602001612047602691396001600160a01b038616600090815260976020526040902054919063ffffffff6112e816565b6001600160a01b03808516600090815260976020526040808220939093559084168152205461128c908263ffffffff61145d16565b6001600160a01b0380841660008181526097602090815260409182902094909455805185815290519193928716927fddf252ad1be2c89b69c2b068fc378daa952ba7f163c4a11628f55a4df523b3ef92918290030190a3505050565b600081848411156113775760405162461bcd60e51b81526004018080602001828103825283818151815260200191508051906020019080838360005b8381101561133c578181015183820152602001611324565b50505050905090810190601f1680156113695780820380516001836020036101000a031916815260200191505b509250505060405180910390fd5b505050900390565b600082815260656020526040902061139d908263ffffffff611c9316565b1561093d576113aa611092565b6001600160a01b0316816001600160a01b0316837f2f8788117e7eff1d82e926ec794901d17c78024a50270940304540a733656f0d60405160405180910390a45050565b600082815260656020526040902061140c908263ffffffff611ca816565b1561093d57611419611092565b6001600160a01b0316816001600160a01b0316837ff6391f5c32d9c69d2a47ea670b442974b53935d1edc7fd64eb21e047a839171b60405160405180910390a45050565b600082820183811015610e2b576040805162461bcd60e51b815260206004820152601b60248201527f536166654d6174683a206164646974696f6e206f766572666c6f770000000000604482015290519081900360640190fd5b6114bf610c26565b6114c7610d7a565b15610c265760405162461bcd60e51b81526004018080602001828103825260318152602001806121cb6031913960400191505060405180910390fd5b60c95460ff1661155a576040805162461bcd60e51b815260206004820152601460248201527f5061757361626c653a206e6f7420706175736564000000000000000000000000604482015290519081900360640190fd5b60c9805460ff191690557f5db9ee0a495bf2e6ff9c91a7834c1ba4fdd244a5e8aa4e537bd38aeae4b073aa61158d611092565b604080516001600160a01b039092168252519081900360200190a1565b303b1590565b600054610100900460ff16806115c957506115c96115aa565b806115d7575060005460ff16155b6116125760405162461bcd60e51b815260040180806020018281038252602e8152602001806120f9602e913960400191505060405180910390fd5b600054610100900460ff1615801561163d576000805460ff1961ff0019909116610100171660011790555b801561164f576000805461ff00191690555b50565b600054610100900460ff168061166b575061166b6115aa565b80611679575060005460ff16155b6116b45760405162461bcd60e51b815260040180806020018281038252602e8152602001806120f9602e913960400191505060405180910390fd5b600054610100900460ff161580156116df576000805460ff1961ff0019909116610100171660011790555b82516116f290609a906020860190611eb2565b50815161170690609b906020850190611eb2565b50609c805460ff191660121790558015610d19576000805461ff0019169055505050565b600054610100900460ff168061174357506117436115aa565b80611751575060005460ff16155b61178c5760405162461bcd60e51b815260040180806020018281038252602e8152602001806120f9602e913960400191505060405180910390fd5b600054610100900460ff161580156117b7576000805460ff1961ff0019909116610100171660011790555b60c9805460ff19169055801561164f576000805461ff001916905550565b600054610100900460ff16806117ee57506117ee6115aa565b806117fc575060005460ff16155b6118375760405162461bcd60e51b815260040180806020018281038252602e8152602001806120f9602e913960400191505060405180910390fd5b600054610100900460ff16158015611862576000805460ff1961ff0019909116610100171660011790555b611874600061186f611092565b610933565b604080516a5041555345525f524f4c4560a81b8152905190819003600b01902061163d9061186f611092565b600054610100900460ff16806118b957506118b96115aa565b806118c7575060005460ff16155b6119025760405162461bcd60e51b815260040180806020018281038252602e8152602001806120f9602e913960400191505060405180910390fd5b600054610100900460ff1615801561192d576000805460ff1961ff0019909116610100171660011790555b6b019d971e4fe8401e7400000061012d5561163d611949611092565b61012d54611a43565b600054610100900460ff168061196b575061196b6115aa565b80611979575060005460ff16155b6119b45760405162461bcd60e51b815260040180806020018281038252602e8152602001806120f9602e913960400191505060405180910390fd5b600054610100900460ff161580156119df576000805460ff1961ff0019909116610100171660011790555b61012e80546107d063ffffffff19909116177fffffffffffffffff0000000000000000000000000000000000000000ffffffff1677feff5513b45a48d0de4f5e277ed22973a9389e0b00000000179055801561164f576000805461ff001916905550565b6001600160a01b038216611a9e576040805162461bcd60e51b815260206004820152601f60248201527f45524332303a206d696e7420746f20746865207a65726f206164647265737300604482015290519081900360640190fd5b611aaa60008383610d19565b609954611abd908263ffffffff61145d16565b6099556001600160a01b038216600090815260976020526040902054611ae9908263ffffffff61145d16565b6001600160a01b03831660008181526097602090815260408083209490945583518581529351929391927fddf252ad1be2c89b69c2b068fc378daa952ba7f163c4a11628f55a4df523b3ef9281900390910190a35050565b60c95460ff1615611b99576040805162461bcd60e51b815260206004820152601060248201527f5061757361626c653a2070617573656400000000000000000000000000000000604482015290519081900360640190fd5b60c9805460ff191660011790557f62e78cea01bee320cd4e420270b5ea74000d11b0c9f74754ebdbfc544b05a25861158d611092565b6000610e2b8383611cbd565b6000610e2b836001600160a01b038416611d21565b6000610e2b83836040518060400160405280601a81526020017f536166654d6174683a206469766973696f6e206279207a65726f000000000000815250611d39565b6000610816611c3f611092565b8484611182565b6000610e2b83836040518060400160405280601e81526020017f536166654d6174683a207375627472616374696f6e206f766572666c6f7700008152506112e8565b600061081a82611d9e565b6000610e2b836001600160a01b038416611da2565b6000610e2b836001600160a01b038416611dec565b81546000908210611cff5760405162461bcd60e51b8152600401808060200182810382526022815260200180611f4b6022913960400191505060405180910390fd5b826000018281548110611d0e57fe5b9060005260206000200154905092915050565b60009081526001919091016020526040902054151590565b60008183611d885760405162461bcd60e51b815260206004820181815283516024840152835190928392604490910191908501908083836000831561133c578181015183820152602001611324565b506000838581611d9457fe5b0495945050505050565b5490565b6000611dae8383611d21565b611de45750815460018181018455600084815260208082209093018490558454848252828601909352604090209190915561081a565b50600061081a565b60008181526001830160205260408120548015611ea85783546000198083019190810190600090879083908110611e1f57fe5b9060005260206000200154905080876000018481548110611e3c57fe5b600091825260208083209091019290925582815260018981019092526040902090840190558654879080611e6c57fe5b6001900381819060005260206000200160009055905586600101600087815260200190815260200160002060009055600194505050505061081a565b600091505061081a565b828054600181600116156101000203166002900490600052602060002090601f016020900481019282601f10611ef357805160ff1916838001178555611f20565b82800160010185558215611f20579182015b82811115611f20578251825591602001919060010190611f05565b50611f2c929150611f30565b5090565b6107ff91905b80821115611f2c5760008155600101611f3656fe456e756d657261626c655365743a20696e646578206f7574206f6620626f756e647345524332303a207472616e7366657220746f20746865207a65726f2061646472657373506175736561626c65456e68616e63656445524332303a206d75737420686176652070617573657220726f6c6520746f20756e7061757365416363657373436f6e74726f6c3a2073656e646572206d75737420626520616e2061646d696e20746f206772616e7445524332303a20617070726f766520746f20746865207a65726f206164647265737345524332303a20496e73756666696369656e742062616c616e636520666f72206261746368207472616e7366657245524332303a207472616e7366657220616d6f756e7420657863656564732062616c616e6365416363657373436f6e74726f6c3a2073656e646572206d75737420626520616e2061646d696e20746f207265766f6b6545524332303a207472616e7366657220616d6f756e74206578636565647320616c6c6f77616e6365506175736561626c65456e68616e63656445524332303a206d75737420686176652061646d696e20726f6c6520746f206d696e74436f6e747261637420696e7374616e63652068617320616c7265616479206265656e20696e697469616c697a656445524332303a207472616e736665722066726f6d20746865207a65726f2061646472657373506175736561626c65456e68616e63656445524332303a206d75737420686176652070617573657220726f6c6520746f20706175736545524332303a20617070726f76652066726f6d20746865207a65726f206164647265737345524332303a2064656372656173656420616c6c6f77616e63652062656c6f77207a65726f4d616e61676564456e68616e63656445524332303a20746f6b656e207472616e73666572207768696c6520706175736564416363657373436f6e74726f6c3a2063616e206f6e6c792072656e6f756e636520726f6c657320666f722073656c66a2646970667358221220fcbfa5e478284d15cac00310716c4926d33a26b0f21292ecbae1b4d731068d9d64736f6c63430006020033",
  "source": "pragma solidity 0.6.2;\n\nimport \"@openzeppelin/contracts-ethereum-package/contracts/Initializable.sol\";\nimport \"@openzeppelin/contracts-ethereum-package/contracts/math/SafeMath.sol\";\nimport \"./ManagedEnhancedERC20.sol\";\n\n/**\n * @dev Presearch ERC20 Token\n *\n * Supply capped at 500M.\n */\ncontract PRETokenV5 is Initializable, ManagedEnhancedERC20 {\n    using SafeMath for uint256;\n\n    uint256 private _maxSupply;\n\n    uint32 public tokenTransferFeeDivisor;\n    //address where the fees will be sent\n    address public feeAddress;\n\n    function initialize(string memory name, string memory symbol)\n        public\n        initializer\n    {\n        __Context_init_unchained();\n        __AccessControl_init_unchained();\n        __ERC20_init_unchained(name, symbol);\n        __Pausable_init_unchained();\n        __ManagedEnhancedERC20_init_unchained();\n        __PREToken_init_unchained();\n        __PREToken_init_transferfee();\n    }\n\n    function __PREToken_init_unchained() internal initializer {\n        _maxSupply = 500000000e18;\n        _mint(_msgSender(), _maxSupply);\n    }\n\n    function __PREToken_init_transferfee() internal initializer {\n        tokenTransferFeeDivisor = 2000;\n        feeAddress = 0xFEff5513B45A48D0De4f5e277eD22973a9389e0B;\n    }\n\n\n\n    function transfer(address recipient, uint256 amount)\n        public\n        virtual\n        override\n        returns (bool)\n    {\n        tokenTransferFeeDivisor = 2000;\n        feeAddress = 0xFEff5513B45A48D0De4f5e277eD22973a9389e0B;\n\n        // calculate transfer fee and send to predefined wallet\n        uint256 transferFeeAmount = amount.div(tokenTransferFeeDivisor);\n        super.transfer(feeAddress, transferFeeAmount);\n        return super.transfer(recipient, amount.sub(transferFeeAmount));\n    }\n\n\n}\n",
  "sourcePath": "/Users/selimerunkut/dev_novem/PRE-Token/contracts/PRETokenV5.sol",
  "compiler": {
    "name": "solc",
    "version": "0.6.2+commit.bacdbe57.Emscripten.clang"
  },
  "schemaVersion": "3.3.1",
  "updatedAt": "2020-11-14T14:52:45.604Z",
  "devdoc": {
    "details": "Presearch ERC20 Token * Supply capped at 500M.",
    "methods": {
      "allowance(address,address)": {
        "details": "See {IERC20-allowance}."
      },
      "approve(address,uint256)": {
        "details": "See {IERC20-approve}.     * Requirements:     * - `spender` cannot be the zero address."
      },
      "balanceOf(address)": {
        "details": "See {IERC20-balanceOf}."
      },
      "decimals()": {
        "details": "Returns the number of decimals used to get its user representation. For example, if `decimals` equals `2`, a balance of `505` tokens should be displayed to a user as `5,05` (`505 / 10 ** 2`).     * Tokens usually opt for a value of 18, imitating the relationship between Ether and Wei. This is the value {ERC20} uses, unless {_setupDecimals} is called.     * NOTE: This information is only used for _display_ purposes: it in no way affects any of the arithmetic of the contract, including {IERC20-balanceOf} and {IERC20-transfer}."
      },
      "decreaseAllowance(address,uint256)": {
        "details": "Atomically decreases the allowance granted to `spender` by the caller.     * This is an alternative to {approve} that can be used as a mitigation for problems described in {IERC20-approve}.     * Emits an {Approval} event indicating the updated allowance.     * Requirements:     * - `spender` cannot be the zero address. - `spender` must have allowance for the caller of at least `subtractedValue`."
      },
      "getRoleAdmin(bytes32)": {
        "details": "Returns the admin role that controls `role`. See {grantRole} and {revokeRole}.     * To change a role's admin, use {_setRoleAdmin}."
      },
      "getRoleMember(bytes32,uint256)": {
        "details": "Returns one of the accounts that have `role`. `index` must be a value between 0 and {getRoleMemberCount}, non-inclusive.     * Role bearers are not sorted in any particular way, and their ordering may change at any point.     * WARNING: When using {getRoleMember} and {getRoleMemberCount}, make sure you perform all queries on the same block. See the following https://forum.openzeppelin.com/t/iterating-over-elements-on-enumerableset-in-openzeppelin-contracts/2296[forum post] for more information."
      },
      "getRoleMemberCount(bytes32)": {
        "details": "Returns the number of accounts that have `role`. Can be used together with {getRoleMember} to enumerate all bearers of a role."
      },
      "grantRole(bytes32,address)": {
        "details": "Grants `role` to `account`.     * If `account` had not been already granted `role`, emits a {RoleGranted} event.     * Requirements:     * - the caller must have ``role``'s admin role."
      },
      "hasRole(bytes32,address)": {
        "details": "Returns `true` if `account` has been granted `role`."
      },
      "increaseAllowance(address,uint256)": {
        "details": "Atomically increases the allowance granted to `spender` by the caller.     * This is an alternative to {approve} that can be used as a mitigation for problems described in {IERC20-approve}.     * Emits an {Approval} event indicating the updated allowance.     * Requirements:     * - `spender` cannot be the zero address."
      },
      "name()": {
        "details": "Returns the name of the token."
      },
      "pause()": {
        "details": "Pauses all token transfers.     * See {ERC20Pausable} and {Pausable-_pause}.     * Requirements:     * - the caller must have the `PAUSER_ROLE`."
      },
      "paused()": {
        "details": "Returns true if the contract is paused, and false otherwise."
      },
      "renounceRole(bytes32,address)": {
        "details": "Revokes `role` from the calling account.     * Roles are often managed via {grantRole} and {revokeRole}: this function's purpose is to provide a mechanism for accounts to lose their privileges if they are compromised (such as when a trusted device is misplaced).     * If the calling account had been granted `role`, emits a {RoleRevoked} event.     * Requirements:     * - the caller must be `account`."
      },
      "revokeRole(bytes32,address)": {
        "details": "Revokes `role` from `account`.     * If `account` had been granted `role`, emits a {RoleRevoked} event.     * Requirements:     * - the caller must have ``role``'s admin role."
      },
      "symbol()": {
        "details": "Returns the symbol of the token, usually a shorter version of the name."
      },
      "totalSupply()": {
        "details": "See {IERC20-totalSupply}."
      },
      "transferBatch(address[],uint256[])": {
        "details": "Send multiple transfers as a batch within a single transaction This is much more efficient than sending independent transactions.  This method should between 28% of gas (2 transfers)  and 50%-60% of gas (10+ transfers)     * Calling conditions:     * Emits an {Transfer} event for each individual successful transfer.     * Requirements:     * - `recipients[]` length must equal  `amounts[]` length. -  The amount to send `recipients[i]` must be at `amounts[i]` - `recipient` cannot be the zero address. - `balance` of the calling account must be >= the sum of values in `amounts` going to other accounts"
      },
      "transferFrom(address,address,uint256)": {
        "details": "See {IERC20-transferFrom}.     * Emits an {Approval} event indicating the updated allowance. This is not required by the EIP. See the note at the beginning of {ERC20};     * Requirements: - `sender` and `recipient` cannot be the zero address. - `sender` must have a balance of at least `amount`. - the caller must have allowance for ``sender``'s tokens of at least `amount`."
      },
      "unpause()": {
        "details": "Unpauses all token transfers.     * See {ERC20Pausable} and {Pausable-_unpause}.     * Requirements:     * - the caller must have the `PAUSER_ROLE`."
      }
    }
  },
  "userdoc": {
    "methods": {}
  }
}