{
  "contractName": "PREToken",
  "abi": [
    {
      "anonymous": false,
      "inputs": [
        {
          "indexed": true,
          "internalType": "address",
          "name": "owner",
          "type": "address"
        },
        {
          "indexed": true,
          "internalType": "address",
          "name": "spender",
          "type": "address"
        },
        {
          "indexed": false,
          "internalType": "uint256",
          "name": "value",
          "type": "uint256"
        }
      ],
      "name": "Approval",
      "type": "event"
    },
    {
      "anonymous": false,
      "inputs": [
        {
          "indexed": false,
          "internalType": "address",
          "name": "account",
          "type": "address"
        }
      ],
      "name": "Paused",
      "type": "event"
    },
    {
      "anonymous": false,
      "inputs": [
        {
          "indexed": true,
          "internalType": "bytes32",
          "name": "role",
          "type": "bytes32"
        },
        {
          "indexed": true,
          "internalType": "address",
          "name": "account",
          "type": "address"
        },
        {
          "indexed": true,
          "internalType": "address",
          "name": "sender",
          "type": "address"
        }
      ],
      "name": "RoleGranted",
      "type": "event"
    },
    {
      "anonymous": false,
      "inputs": [
        {
          "indexed": true,
          "internalType": "bytes32",
          "name": "role",
          "type": "bytes32"
        },
        {
          "indexed": true,
          "internalType": "address",
          "name": "account",
          "type": "address"
        },
        {
          "indexed": true,
          "internalType": "address",
          "name": "sender",
          "type": "address"
        }
      ],
      "name": "RoleRevoked",
      "type": "event"
    },
    {
      "anonymous": false,
      "inputs": [
        {
          "indexed": true,
          "internalType": "address",
          "name": "from",
          "type": "address"
        },
        {
          "indexed": true,
          "internalType": "address",
          "name": "to",
          "type": "address"
        },
        {
          "indexed": false,
          "internalType": "uint256",
          "name": "value",
          "type": "uint256"
        }
      ],
      "name": "Transfer",
      "type": "event"
    },
    {
      "anonymous": false,
      "inputs": [
        {
          "indexed": false,
          "internalType": "address",
          "name": "account",
          "type": "address"
        }
      ],
      "name": "Unpaused",
      "type": "event"
    },
    {
      "inputs": [],
      "name": "DEFAULT_ADMIN_ROLE",
      "outputs": [
        {
          "internalType": "bytes32",
          "name": "",
          "type": "bytes32"
        }
      ],
      "stateMutability": "view",
      "type": "function",
      "constant": true
    },
    {
      "inputs": [],
      "name": "FEE_EXCLUDED_ROLE",
      "outputs": [
        {
          "internalType": "bytes32",
          "name": "",
          "type": "bytes32"
        }
      ],
      "stateMutability": "view",
      "type": "function",
      "constant": true
    },
    {
      "inputs": [],
      "name": "PAUSER_ROLE",
      "outputs": [
        {
          "internalType": "bytes32",
          "name": "",
          "type": "bytes32"
        }
      ],
      "stateMutability": "view",
      "type": "function",
      "constant": true
    },
    {
      "inputs": [
        {
          "internalType": "address",
          "name": "owner",
          "type": "address"
        },
        {
          "internalType": "address",
          "name": "spender",
          "type": "address"
        }
      ],
      "name": "allowance",
      "outputs": [
        {
          "internalType": "uint256",
          "name": "",
          "type": "uint256"
        }
      ],
      "stateMutability": "view",
      "type": "function",
      "constant": true
    },
    {
      "inputs": [
        {
          "internalType": "address",
          "name": "spender",
          "type": "address"
        },
        {
          "internalType": "uint256",
          "name": "amount",
          "type": "uint256"
        }
      ],
      "name": "approve",
      "outputs": [
        {
          "internalType": "bool",
          "name": "",
          "type": "bool"
        }
      ],
      "stateMutability": "nonpayable",
      "type": "function"
    },
    {
      "inputs": [
        {
          "internalType": "address",
          "name": "account",
          "type": "address"
        }
      ],
      "name": "balanceOf",
      "outputs": [
        {
          "internalType": "uint256",
          "name": "",
          "type": "uint256"
        }
      ],
      "stateMutability": "view",
      "type": "function",
      "constant": true
    },
    {
      "inputs": [],
      "name": "decimals",
      "outputs": [
        {
          "internalType": "uint8",
          "name": "",
          "type": "uint8"
        }
      ],
      "stateMutability": "view",
      "type": "function",
      "constant": true
    },
    {
      "inputs": [
        {
          "internalType": "address",
          "name": "spender",
          "type": "address"
        },
        {
          "internalType": "uint256",
          "name": "subtractedValue",
          "type": "uint256"
        }
      ],
      "name": "decreaseAllowance",
      "outputs": [
        {
          "internalType": "bool",
          "name": "",
          "type": "bool"
        }
      ],
      "stateMutability": "nonpayable",
      "type": "function"
    },
    {
      "inputs": [],
      "name": "feeAddress",
      "outputs": [
        {
          "internalType": "address",
          "name": "",
          "type": "address"
        }
      ],
      "stateMutability": "view",
      "type": "function",
      "constant": true
    },
    {
      "inputs": [
        {
          "internalType": "bytes32",
          "name": "role",
          "type": "bytes32"
        }
      ],
      "name": "getRoleAdmin",
      "outputs": [
        {
          "internalType": "bytes32",
          "name": "",
          "type": "bytes32"
        }
      ],
      "stateMutability": "view",
      "type": "function",
      "constant": true
    },
    {
      "inputs": [
        {
          "internalType": "bytes32",
          "name": "role",
          "type": "bytes32"
        },
        {
          "internalType": "uint256",
          "name": "index",
          "type": "uint256"
        }
      ],
      "name": "getRoleMember",
      "outputs": [
        {
          "internalType": "address",
          "name": "",
          "type": "address"
        }
      ],
      "stateMutability": "view",
      "type": "function",
      "constant": true
    },
    {
      "inputs": [
        {
          "internalType": "bytes32",
          "name": "role",
          "type": "bytes32"
        }
      ],
      "name": "getRoleMemberCount",
      "outputs": [
        {
          "internalType": "uint256",
          "name": "",
          "type": "uint256"
        }
      ],
      "stateMutability": "view",
      "type": "function",
      "constant": true
    },
    {
      "inputs": [
        {
          "internalType": "bytes32",
          "name": "role",
          "type": "bytes32"
        },
        {
          "internalType": "address",
          "name": "account",
          "type": "address"
        }
      ],
      "name": "grantRole",
      "outputs": [],
      "stateMutability": "nonpayable",
      "type": "function"
    },
    {
      "inputs": [
        {
          "internalType": "bytes32",
          "name": "role",
          "type": "bytes32"
        },
        {
          "internalType": "address",
          "name": "account",
          "type": "address"
        }
      ],
      "name": "hasRole",
      "outputs": [
        {
          "internalType": "bool",
          "name": "",
          "type": "bool"
        }
      ],
      "stateMutability": "view",
      "type": "function",
      "constant": true
    },
    {
      "inputs": [
        {
          "internalType": "address",
          "name": "spender",
          "type": "address"
        },
        {
          "internalType": "uint256",
          "name": "addedValue",
          "type": "uint256"
        }
      ],
      "name": "increaseAllowance",
      "outputs": [
        {
          "internalType": "bool",
          "name": "",
          "type": "bool"
        }
      ],
      "stateMutability": "nonpayable",
      "type": "function"
    },
    {
      "inputs": [
        {
          "internalType": "address",
          "name": "recipient",
          "type": "address"
        },
        {
          "internalType": "uint256",
          "name": "amount",
          "type": "uint256"
        }
      ],
      "name": "mintWithoutDecimals",
      "outputs": [],
      "stateMutability": "nonpayable",
      "type": "function"
    },
    {
      "inputs": [],
      "name": "name",
      "outputs": [
        {
          "internalType": "string",
          "name": "",
          "type": "string"
        }
      ],
      "stateMutability": "view",
      "type": "function",
      "constant": true
    },
    {
      "inputs": [],
      "name": "pause",
      "outputs": [],
      "stateMutability": "nonpayable",
      "type": "function"
    },
    {
      "inputs": [],
      "name": "paused",
      "outputs": [
        {
          "internalType": "bool",
          "name": "",
          "type": "bool"
        }
      ],
      "stateMutability": "view",
      "type": "function",
      "constant": true
    },
    {
      "inputs": [
        {
          "internalType": "bytes32",
          "name": "role",
          "type": "bytes32"
        },
        {
          "internalType": "address",
          "name": "account",
          "type": "address"
        }
      ],
      "name": "renounceRole",
      "outputs": [],
      "stateMutability": "nonpayable",
      "type": "function"
    },
    {
      "inputs": [
        {
          "internalType": "bytes32",
          "name": "role",
          "type": "bytes32"
        },
        {
          "internalType": "address",
          "name": "account",
          "type": "address"
        }
      ],
      "name": "revokeRole",
      "outputs": [],
      "stateMutability": "nonpayable",
      "type": "function"
    },
    {
      "inputs": [
        {
          "internalType": "address",
          "name": "_feeAddress",
          "type": "address"
        }
      ],
      "name": "setMintingFeeAddress",
      "outputs": [],
      "stateMutability": "nonpayable",
      "type": "function"
    },
    {
      "inputs": [
        {
          "internalType": "uint32",
          "name": "_tokenTransferFeeDivisor",
          "type": "uint32"
        }
      ],
      "name": "setMintingFeePercent",
      "outputs": [],
      "stateMutability": "nonpayable",
      "type": "function"
    },
    {
      "inputs": [],
      "name": "symbol",
      "outputs": [
        {
          "internalType": "string",
          "name": "",
          "type": "string"
        }
      ],
      "stateMutability": "view",
      "type": "function",
      "constant": true
    },
    {
      "inputs": [],
      "name": "tokenTransferFeeDivisor",
      "outputs": [
        {
          "internalType": "uint32",
          "name": "",
          "type": "uint32"
        }
      ],
      "stateMutability": "view",
      "type": "function",
      "constant": true
    },
    {
      "inputs": [],
      "name": "totalSupply",
      "outputs": [
        {
          "internalType": "uint256",
          "name": "",
          "type": "uint256"
        }
      ],
      "stateMutability": "view",
      "type": "function",
      "constant": true
    },
    {
      "inputs": [
        {
          "internalType": "address",
          "name": "recipient",
          "type": "address"
        },
        {
          "internalType": "uint256",
          "name": "amount",
          "type": "uint256"
        }
      ],
      "name": "transfer",
      "outputs": [
        {
          "internalType": "bool",
          "name": "",
          "type": "bool"
        }
      ],
      "stateMutability": "nonpayable",
      "type": "function"
    },
    {
      "inputs": [
        {
          "internalType": "address[]",
          "name": "recipients",
          "type": "address[]"
        },
        {
          "internalType": "uint256[]",
          "name": "amounts",
          "type": "uint256[]"
        }
      ],
      "name": "transferBatch",
      "outputs": [
        {
          "internalType": "bool",
          "name": "",
          "type": "bool"
        }
      ],
      "stateMutability": "nonpayable",
      "type": "function"
    },
    {
      "inputs": [
        {
          "internalType": "address",
          "name": "sender",
          "type": "address"
        },
        {
          "internalType": "address",
          "name": "recipient",
          "type": "address"
        },
        {
          "internalType": "uint256",
          "name": "amount",
          "type": "uint256"
        }
      ],
      "name": "transferFrom",
      "outputs": [
        {
          "internalType": "bool",
          "name": "",
          "type": "bool"
        }
      ],
      "stateMutability": "nonpayable",
      "type": "function"
    },
    {
      "inputs": [],
      "name": "unpause",
      "outputs": [],
      "stateMutability": "nonpayable",
      "type": "function"
    },
    {
      "inputs": [
        {
          "internalType": "string",
          "name": "name",
          "type": "string"
        },
        {
          "internalType": "string",
          "name": "symbol",
          "type": "string"
        }
      ],
      "name": "initialize",
      "outputs": [],
      "stateMutability": "nonpayable",
      "type": "function"
    }
  ],
  "bytecode": "0x608060405234801561001057600080fd5b506123e3806100206000396000f3fe608060405234801561001057600080fd5b50600436106101e55760003560e01c80634cd88b761161010f578063a217fddf116100a2578063ca15c87311610071578063ca15c8731461075e578063d547741f1461077b578063dd62ed3e146107a7578063e63ab1e9146107d5576101e5565b8063a217fddf146106d8578063a457c2d7146106e0578063a9059cbb1461070c578063ae1cb38014610738576101e5565b80638456cb59116100de5780638456cb59146106795780639010d07c1461068157806391d14854146106a457806395d89b41146106d0576101e5565b80634cd88b76146104f25780634e01b0d01461061f5780635c975abb1461064b57806370a0823114610653576101e5565b80632dd8175a11610187578063395093511161015657806339509351146103d85780633b3e672f146104045780633f4ba83a146104c657806341275358146104ce576101e5565b80632dd8175a1461035a5780632f2ff15d14610362578063313ce5671461038e57806336568abe146103ac576101e5565b806318160ddd116101c357806318160ddd146102c857806323b872dd146102e2578063248a9ca314610318578063285f398914610335576101e5565b806306fdde03146101ea578063095ea7b3146102675780631804cb04146102a7575b600080fd5b6101f26107dd565b6040805160208082528351818301528351919283929083019185019080838360005b8381101561022c578181015183820152602001610214565b50505050905090810190601f1680156102595780820380516001836020036101000a031916815260200191505b509250505060405180910390f35b6102936004803603604081101561027d57600080fd5b506001600160a01b038135169060200135610874565b604080519115158252519081900360200190f35b6102af610892565b6040805163ffffffff9092168252519081900360200190f35b6102d061089e565b60408051918252519081900360200190f35b610293600480360360608110156102f857600080fd5b506001600160a01b038135811691602081013590911690604001356108a4565b6102d06004803603602081101561032e57600080fd5b5035610931565b6103586004803603602081101561034b57600080fd5b503563ffffffff16610946565b005b6102d06109af565b6103586004803603604081101561037857600080fd5b50803590602001356001600160a01b03166109e4565b610396610a4b565b6040805160ff9092168252519081900360200190f35b610358600480360360408110156103c257600080fd5b50803590602001356001600160a01b0316610a54565b610293600480360360408110156103ee57600080fd5b506001600160a01b038135169060200135610ab5565b6102936004803603604081101561041a57600080fd5b81019060208101813564010000000081111561043557600080fd5b82018360208201111561044757600080fd5b8035906020019184602083028401116401000000008311171561046957600080fd5b91939092909160208101903564010000000081111561048757600080fd5b82018360208201111561049957600080fd5b803590602001918460208302840111640100000000831117156104bb57600080fd5b509092509050610b09565b610358610cc1565b6104d6610d32565b604080516001600160a01b039092168252519081900360200190f35b6103586004803603604081101561050857600080fd5b81019060208101813564010000000081111561052357600080fd5b82018360208201111561053557600080fd5b8035906020019184600183028401116401000000008311171561055757600080fd5b91908080601f01602080910402602001604051908101604052809392919081815260200183838082843760009201919091525092959493602081019350359150506401000000008111156105aa57600080fd5b8201836020820111156105bc57600080fd5b803590602001918460018302840111640100000000831117156105de57600080fd5b91908080601f016020809104026020016040519081016040528093929190818152602001838380828437600092019190915250929550610d49945050505050565b6103586004803603604081101561063557600080fd5b506001600160a01b038135169060200135610e1f565b610293610e7b565b6102d06004803603602081101561066957600080fd5b50356001600160a01b0316610e84565b610358610e9f565b6104d66004803603604081101561069757600080fd5b5080359060200135610f0e565b610293600480360360408110156106ba57600080fd5b50803590602001356001600160a01b0316610f33565b6101f2610f51565b6102d0610fb2565b610293600480360360408110156106f657600080fd5b506001600160a01b038135169060200135610fb7565b6102936004803603604081101561072257600080fd5b506001600160a01b038135169060200135611025565b6103586004803603602081101561074e57600080fd5b50356001600160a01b0316611094565b6102d06004803603602081101561077457600080fd5b503561111e565b6103586004803603604081101561079157600080fd5b50803590602001356001600160a01b0316611135565b6102d0600480360360408110156107bd57600080fd5b506001600160a01b038135811691602001351661118e565b6102d06111b9565b609a8054604080516020601f60026000196101006001881615020190951694909404938401819004810282018101909252828152606093909290918301828280156108695780601f1061083e57610100808354040283529160200191610869565b820191906000526020600020905b81548152906001019060200180831161084c57829003601f168201915b505050505090505b90565b60006108886108816111dc565b84846111e0565b5060015b92915050565b60fb5463ffffffff1681565b60995490565b60006108b18484846112cc565b610927846108bd6111dc565b61092285604051806060016040528060288152602001612220602891396001600160a01b038a166000908152609860205260408120906108fb6111dc565b6001600160a01b03168152602081019190915260400160002054919063ffffffff61143216565b6111e0565b5060019392505050565b60009081526065602052604090206002015490565b61095860006109536111dc565b610f33565b6109935760405162461bcd60e51b81526004018080602001828103825260478152602001806121336047913960600191505060405180910390fd5b60fb805463ffffffff191663ffffffff92909216919091179055565b604080517f4645455f4558434c554445445f524f4c450000000000000000000000000000008152905190819003601101902081565b600082815260656020526040902060020154610a02906109536111dc565b610a3d5760405162461bcd60e51b815260040180806020018281038252602f815260200180612104602f913960400191505060405180910390fd5b610a4782826114c9565b5050565b609c5460ff1690565b610a5c6111dc565b6001600160a01b0316816001600160a01b031614610aab5760405162461bcd60e51b815260040180806020018281038252602f81526020018061237f602f913960400191505060405180910390fd5b610a478282611538565b6000610888610ac26111dc565b846109228560986000610ad36111dc565b6001600160a01b03908116825260208083019390935260409182016000908120918c16815292529020549063ffffffff6115a716565b6000838214610b1757600080fd5b610b1f611601565b6000610b296111dc565b6001600160a01b0381166000908152609760205260408120549192505b84811015610c9b576000868683818110610b5c57fe5b9050602002013590506000898984818110610b7357fe5b905060200201356001600160a01b0316905081841015610bc45760405162461bcd60e51b815260040180806020018281038252602e81526020018061219c602e913960400191505060405180910390fd5b6001600160a01b038116610c095760405162461bcd60e51b81526004018080602001828103825260238152602001806120a96023913960400191505060405180910390fd5b806001600160a01b0316856001600160a01b031614610c46576001600160a01b038116600090815260976020526040902080548301905592819003925b806001600160a01b0316856001600160a01b03167fddf252ad1be2c89b69c2b068fc378daa952ba7f163c4a11628f55a4df523b3ef846040518082815260200191505060405180910390a35050600101610b46565b506001600160a01b03909116600090815260976020526040902055506001949350505050565b604080516a5041555345525f524f4c4560a81b8152905190819003600b019020610ced906109536111dc565b610d285760405162461bcd60e51b81526004018080602001828103825260388152602001806120cc6038913960400191505060405180910390fd5b610d3061164d565b565b60fb5464010000000090046001600160a01b031681565b600054610100900460ff1680610d625750610d626116f4565b80610d70575060005460ff16155b610dab5760405162461bcd60e51b815260040180806020018281038252602e81526020018061227c602e913960400191505060405180910390fd5b600054610100900460ff16158015610dd6576000805460ff1961ff0019909116610100171660011790555b610dde6116fa565b610de66116fa565b610df0838361179c565b610df8611874565b610e0061191f565b610e08611a50565b8015610e1a576000805461ff00191690555b505050565b610e2c60006109536111dc565b610e675760405162461bcd60e51b81526004018080602001828103825260348152602001806122486034913960400191505060405180910390fd5b610a478282670de0b6b3a764000002611afe565b60c95460ff1690565b6001600160a01b031660009081526097602052604090205490565b604080516a5041555345525f524f4c4560a81b8152905190819003600b019020610ecb906109536111dc565b610f065760405162461bcd60e51b81526004018080602001828103825260368152602001806122cf6036913960400191505060405180910390fd5b610d30611bfc565b6000828152606560205260408120610f2c908363ffffffff611c8a16565b9392505050565b6000828152606560205260408120610f2c908363ffffffff611c9616565b609b8054604080516020601f60026000196101006001881615020190951694909404938401819004810282018101909252828152606093909290918301828280156108695780601f1061083e57610100808354040283529160200191610869565b600081565b6000610888610fc46111dc565b84610922856040518060600160405280602581526020016123296025913960986000610fee6111dc565b6001600160a01b03908116825260208083019390935260409182016000908120918d1681529252902054919063ffffffff61143216565b604080517f4645455f4558434c554445445f524f4c4500000000000000000000000000000081529051908190036011019020600090611066906109536111dc565b1561107b576110758383611cab565b5061088c565b61108d8361108884611cbf565b611cab565b905061088c565b6110a160006109536111dc565b6110dc5760405162461bcd60e51b81526004018080602001828103825260478152602001806121336047913960600191505060405180910390fd5b60fb80546001600160a01b03909216640100000000027fffffffffffffffff0000000000000000000000000000000000000000ffffffff909216919091179055565b600081815260656020526040812061088c90611d0e565b600082815260656020526040902060020154611153906109536111dc565b610aab5760405162461bcd60e51b81526004018080602001828103825260308152602001806121f06030913960400191505060405180910390fd5b6001600160a01b03918216600090815260986020908152604080832093909416825291909152205490565b604080516a5041555345525f524f4c4560a81b8152905190819003600b01902081565b3390565b6001600160a01b0383166112255760405162461bcd60e51b81526004018080602001828103825260248152602001806123056024913960400191505060405180910390fd5b6001600160a01b03821661126a5760405162461bcd60e51b815260040180806020018281038252602281526020018061217a6022913960400191505060405180910390fd5b6001600160a01b03808416600081815260986020908152604080832094871680845294825291829020859055815185815291517f8c5be1e5ebec7d5bd14f71427d1e84f3dd0314c0f7b2291e5b200ac8c7c3b9259281900390910190a3505050565b6001600160a01b0383166113115760405162461bcd60e51b81526004018080602001828103825260258152602001806122aa6025913960400191505060405180910390fd5b6001600160a01b0382166113565760405162461bcd60e51b81526004018080602001828103825260238152602001806120a96023913960400191505060405180910390fd5b61135e611601565b6113a1816040518060600160405280602681526020016121ca602691396001600160a01b038616600090815260976020526040902054919063ffffffff61143216565b6001600160a01b0380851660009081526097602052604080822093909355908416815220546113d6908263ffffffff6115a716565b6001600160a01b0380841660008181526097602090815260409182902094909455805185815290519193928716927fddf252ad1be2c89b69c2b068fc378daa952ba7f163c4a11628f55a4df523b3ef92918290030190a3505050565b600081848411156114c15760405162461bcd60e51b81526004018080602001828103825283818151815260200191508051906020019080838360005b8381101561148657818101518382015260200161146e565b50505050905090810190601f1680156114b35780820380516001836020036101000a031916815260200191505b509250505060405180910390fd5b505050900390565b60008281526065602052604090206114e7908263ffffffff611d1916565b15610a47576114f46111dc565b6001600160a01b0316816001600160a01b0316837f2f8788117e7eff1d82e926ec794901d17c78024a50270940304540a733656f0d60405160405180910390a45050565b6000828152606560205260409020611556908263ffffffff611d2e16565b15610a47576115636111dc565b6001600160a01b0316816001600160a01b0316837ff6391f5c32d9c69d2a47ea670b442974b53935d1edc7fd64eb21e047a839171b60405160405180910390a45050565b600082820183811015610f2c576040805162461bcd60e51b815260206004820152601b60248201527f536166654d6174683a206164646974696f6e206f766572666c6f770000000000604482015290519081900360640190fd5b611609610d30565b611611610e7b565b15610d305760405162461bcd60e51b815260040180806020018281038252603181526020018061234e6031913960400191505060405180910390fd5b60c95460ff166116a4576040805162461bcd60e51b815260206004820152601460248201527f5061757361626c653a206e6f7420706175736564000000000000000000000000604482015290519081900360640190fd5b60c9805460ff191690557f5db9ee0a495bf2e6ff9c91a7834c1ba4fdd244a5e8aa4e537bd38aeae4b073aa6116d76111dc565b604080516001600160a01b039092168252519081900360200190a1565b303b1590565b600054610100900460ff168061171357506117136116f4565b80611721575060005460ff16155b61175c5760405162461bcd60e51b815260040180806020018281038252602e81526020018061227c602e913960400191505060405180910390fd5b600054610100900460ff16158015611787576000805460ff1961ff0019909116610100171660011790555b8015611799576000805461ff00191690555b50565b600054610100900460ff16806117b557506117b56116f4565b806117c3575060005460ff16155b6117fe5760405162461bcd60e51b815260040180806020018281038252602e81526020018061227c602e913960400191505060405180910390fd5b600054610100900460ff16158015611829576000805460ff1961ff0019909116610100171660011790555b825161183c90609a906020860190611fee565b50815161185090609b906020850190611fee565b50609c805460ff191660121790558015610e1a576000805461ff0019169055505050565b600054610100900460ff168061188d575061188d6116f4565b8061189b575060005460ff16155b6118d65760405162461bcd60e51b815260040180806020018281038252602e81526020018061227c602e913960400191505060405180910390fd5b600054610100900460ff16158015611901576000805460ff1961ff0019909116610100171660011790555b60c9805460ff191690558015611799576000805461ff001916905550565b600054610100900460ff168061193857506119386116f4565b80611946575060005460ff16155b6119815760405162461bcd60e51b815260040180806020018281038252602e81526020018061227c602e913960400191505060405180910390fd5b600054610100900460ff161580156119ac576000805460ff1961ff0019909116610100171660011790555b6119be60006119b96111dc565b610a3d565b604080516a5041555345525f524f4c4560a81b8152905190819003600b0190206119ea906119b96111dc565b604080517f4645455f4558434c554445445f524f4c4500000000000000000000000000000081529051908190036011019020611a28906119b96111dc565b611a4573feff5513b45a48d0de4f5e277ed22973a9389e0b611094565b6117876107d0610946565b600054610100900460ff1680611a695750611a696116f4565b80611a77575060005460ff16155b611ab25760405162461bcd60e51b815260040180806020018281038252602e81526020018061227c602e913960400191505060405180910390fd5b600054610100900460ff16158015611add576000805460ff1961ff0019909116610100171660011790555b6b019d971e4fe8401e7400000061012e55611787611af96111dc565b61012e545b6001600160a01b038216611b59576040805162461bcd60e51b815260206004820152601f60248201527f45524332303a206d696e7420746f20746865207a65726f206164647265737300604482015290519081900360640190fd5b611b6560008383611d43565b609954611b78908263ffffffff6115a716565b6099556001600160a01b038216600090815260976020526040902054611ba4908263ffffffff6115a716565b6001600160a01b03831660008181526097602090815260408083209490945583518581529351929391927fddf252ad1be2c89b69c2b068fc378daa952ba7f163c4a11628f55a4df523b3ef9281900390910190a35050565b60c95460ff1615611c54576040805162461bcd60e51b815260206004820152601060248201527f5061757361626c653a2070617573656400000000000000000000000000000000604482015290519081900360640190fd5b60c9805460ff191660011790557f62e78cea01bee320cd4e420270b5ea74000d11b0c9f74754ebdbfc544b05a2586116d76111dc565b6000610f2c8383611d75565b6000610f2c836001600160a01b038416611dd9565b6000610888611cb86111dc565b84846112cc565b60fb546000908190611cdc90849063ffffffff90811690611df116565b60fb54909150611cfd9064010000000090046001600160a01b031682611cab565b50610f2c838263ffffffff611e3316565b600061088c82611e75565b6000610f2c836001600160a01b038416611e79565b6000610f2c836001600160a01b038416611ec3565b61012e54611d5f82611d5361089e565b9063ffffffff6115a716565b1115611d6a57600080fd5b610e1a838383610e1a565b81546000908210611db75760405162461bcd60e51b81526004018080602001828103825260228152602001806120876022913960400191505060405180910390fd5b826000018281548110611dc657fe5b9060005260206000200154905092915050565b60009081526001919091016020526040902054151590565b6000610f2c83836040518060400160405280601a81526020017f536166654d6174683a206469766973696f6e206279207a65726f000000000000815250611f89565b6000610f2c83836040518060400160405280601e81526020017f536166654d6174683a207375627472616374696f6e206f766572666c6f770000815250611432565b5490565b6000611e858383611dd9565b611ebb5750815460018181018455600084815260208082209093018490558454848252828601909352604090209190915561088c565b50600061088c565b60008181526001830160205260408120548015611f7f5783546000198083019190810190600090879083908110611ef657fe5b9060005260206000200154905080876000018481548110611f1357fe5b600091825260208083209091019290925582815260018981019092526040902090840190558654879080611f4357fe5b6001900381819060005260206000200160009055905586600101600087815260200190815260200160002060009055600194505050505061088c565b600091505061088c565b60008183611fd85760405162461bcd60e51b815260206004820181815283516024840152835190928392604490910191908501908083836000831561148657818101518382015260200161146e565b506000838581611fe457fe5b0495945050505050565b828054600181600116156101000203166002900490600052602060002090601f016020900481019282601f1061202f57805160ff191683800117855561205c565b8280016001018555821561205c579182015b8281111561205c578251825591602001919060010190612041565b5061206892915061206c565b5090565b61087191905b80821115612068576000815560010161207256fe456e756d657261626c655365743a20696e646578206f7574206f6620626f756e647345524332303a207472616e7366657220746f20746865207a65726f2061646472657373506175736561626c65456e68616e63656445524332303a206d75737420686176652070617573657220726f6c6520746f20756e7061757365416363657373436f6e74726f6c3a2073656e646572206d75737420626520616e2061646d696e20746f206772616e74506175736561626c65456e68616e63656445524332303a206d75737420686176652061646d696e20726f6c6520746f20736574206d696e74696e6720666565206164647265737345524332303a20617070726f766520746f20746865207a65726f206164647265737345524332303a20496e73756666696369656e742062616c616e636520666f72206261746368207472616e7366657245524332303a207472616e7366657220616d6f756e7420657863656564732062616c616e6365416363657373436f6e74726f6c3a2073656e646572206d75737420626520616e2061646d696e20746f207265766f6b6545524332303a207472616e7366657220616d6f756e74206578636565647320616c6c6f77616e6365506175736561626c65456e68616e63656445524332303a206d75737420686176652061646d696e20726f6c6520746f206d696e74436f6e747261637420696e7374616e63652068617320616c7265616479206265656e20696e697469616c697a656445524332303a207472616e736665722066726f6d20746865207a65726f2061646472657373506175736561626c65456e68616e63656445524332303a206d75737420686176652070617573657220726f6c6520746f20706175736545524332303a20617070726f76652066726f6d20746865207a65726f206164647265737345524332303a2064656372656173656420616c6c6f77616e63652062656c6f77207a65726f4d616e61676564456e68616e63656445524332303a20746f6b656e207472616e73666572207768696c6520706175736564416363657373436f6e74726f6c3a2063616e206f6e6c792072656e6f756e636520726f6c657320666f722073656c66a26469706673582212205dfb68f945f377ce0b3a46fb0e38c7cb3c2469a06cd56061c73341c0ce93079e64736f6c63430006020033",
  "source": "pragma solidity 0.6.2;\n\nimport \"@openzeppelin/contracts-ethereum-package/contracts/Initializable.sol\";\nimport \"@openzeppelin/contracts-ethereum-package/contracts/math/SafeMath.sol\";\nimport \"./ManagedEnhancedERC20.sol\";\n\n/**\n * @dev Presearch ERC20 Token\n *\n * Supply capped at 500M.\n */\ncontract PREToken is Initializable, ManagedEnhancedERC20  {\n    using SafeMath for uint256;\n\n    uint256 private _maxSupply;\n\n    function initialize(string memory name, string memory symbol) public initializer {\n        __Context_init_unchained();\n        __AccessControl_init_unchained();\n        __ERC20_init_unchained(name, symbol);\n        __Pausable_init_unchained();\n        __ManagedEnhancedERC20_init_unchained();\n        __PREToken_init_unchained(); \n    }\n\n    function __PREToken_init_unchained() internal initializer {\n        _maxSupply = 500000000e18;\n        _mint(_msgSender(), _maxSupply); \n    }\n\n    function _beforeMint(address from, address to, uint256 amount) internal virtual override {\n        require(totalSupply().add(amount) <= _maxSupply);\n        super._beforeMint(from, to, amount);\n    }\n\n}\n",
  "sourcePath": "/Users/selimerunkut/dev_novem/PRE-Token/contracts/PREToken.sol",
  "compiler": {
    "name": "solc",
    "version": "0.6.2+commit.bacdbe57.Emscripten.clang"
  },
  "schemaVersion": "3.3.1",
  "updatedAt": "2020-11-14T19:09:41.391Z",
  "networkType": "ethereum",
  "devdoc": {
    "details": "Presearch ERC20 Token * Supply capped at 500M.",
    "methods": {
      "allowance(address,address)": {
        "details": "See {IERC20-allowance}."
      },
      "approve(address,uint256)": {
        "details": "See {IERC20-approve}.     * Requirements:     * - `spender` cannot be the zero address."
      },
      "balanceOf(address)": {
        "details": "See {IERC20-balanceOf}."
      },
      "decimals()": {
        "details": "Returns the number of decimals used to get its user representation. For example, if `decimals` equals `2`, a balance of `505` tokens should be displayed to a user as `5,05` (`505 / 10 ** 2`).     * Tokens usually opt for a value of 18, imitating the relationship between Ether and Wei. This is the value {ERC20} uses, unless {_setupDecimals} is called.     * NOTE: This information is only used for _display_ purposes: it in no way affects any of the arithmetic of the contract, including {IERC20-balanceOf} and {IERC20-transfer}."
      },
      "decreaseAllowance(address,uint256)": {
        "details": "Atomically decreases the allowance granted to `spender` by the caller.     * This is an alternative to {approve} that can be used as a mitigation for problems described in {IERC20-approve}.     * Emits an {Approval} event indicating the updated allowance.     * Requirements:     * - `spender` cannot be the zero address. - `spender` must have allowance for the caller of at least `subtractedValue`."
      },
      "getRoleAdmin(bytes32)": {
        "details": "Returns the admin role that controls `role`. See {grantRole} and {revokeRole}.     * To change a role's admin, use {_setRoleAdmin}."
      },
      "getRoleMember(bytes32,uint256)": {
        "details": "Returns one of the accounts that have `role`. `index` must be a value between 0 and {getRoleMemberCount}, non-inclusive.     * Role bearers are not sorted in any particular way, and their ordering may change at any point.     * WARNING: When using {getRoleMember} and {getRoleMemberCount}, make sure you perform all queries on the same block. See the following https://forum.openzeppelin.com/t/iterating-over-elements-on-enumerableset-in-openzeppelin-contracts/2296[forum post] for more information."
      },
      "getRoleMemberCount(bytes32)": {
        "details": "Returns the number of accounts that have `role`. Can be used together with {getRoleMember} to enumerate all bearers of a role."
      },
      "grantRole(bytes32,address)": {
        "details": "Grants `role` to `account`.     * If `account` had not been already granted `role`, emits a {RoleGranted} event.     * Requirements:     * - the caller must have ``role``'s admin role."
      },
      "hasRole(bytes32,address)": {
        "details": "Returns `true` if `account` has been granted `role`."
      },
      "increaseAllowance(address,uint256)": {
        "details": "Atomically increases the allowance granted to `spender` by the caller.     * This is an alternative to {approve} that can be used as a mitigation for problems described in {IERC20-approve}.     * Emits an {Approval} event indicating the updated allowance.     * Requirements:     * - `spender` cannot be the zero address."
      },
      "name()": {
        "details": "Returns the name of the token."
      },
      "pause()": {
        "details": "Pauses all token transfers.     * See {ERC20Pausable} and {Pausable-_pause}.     * Requirements:     * - the caller must have the `PAUSER_ROLE`."
      },
      "paused()": {
        "details": "Returns true if the contract is paused, and false otherwise."
      },
      "renounceRole(bytes32,address)": {
        "details": "Revokes `role` from the calling account.     * Roles are often managed via {grantRole} and {revokeRole}: this function's purpose is to provide a mechanism for accounts to lose their privileges if they are compromised (such as when a trusted device is misplaced).     * If the calling account had been granted `role`, emits a {RoleRevoked} event.     * Requirements:     * - the caller must be `account`."
      },
      "revokeRole(bytes32,address)": {
        "details": "Revokes `role` from `account`.     * If `account` had been granted `role`, emits a {RoleRevoked} event.     * Requirements:     * - the caller must have ``role``'s admin role."
      },
      "symbol()": {
        "details": "Returns the symbol of the token, usually a shorter version of the name."
      },
      "totalSupply()": {
        "details": "See {IERC20-totalSupply}."
      },
      "transferBatch(address[],uint256[])": {
        "details": "Send multiple transfers as a batch within a single transaction This is much more efficient than sending independent transactions.  This method should between 28% of gas (2 transfers)  and 50%-60% of gas (10+ transfers)     * Calling conditions:     * Emits an {Transfer} event for each individual successful transfer.     * Requirements:     * - `recipients[]` length must equal  `amounts[]` length. -  The amount to send `recipients[i]` must be at `amounts[i]` - `recipient` cannot be the zero address. - `balance` of the calling account must be >= the sum of values in `amounts` going to other accounts"
      },
      "transferFrom(address,address,uint256)": {
        "details": "See {IERC20-transferFrom}.     * Emits an {Approval} event indicating the updated allowance. This is not required by the EIP. See the note at the beginning of {ERC20};     * Requirements: - `sender` and `recipient` cannot be the zero address. - `sender` must have a balance of at least `amount`. - the caller must have allowance for ``sender``'s tokens of at least `amount`."
      },
      "unpause()": {
        "details": "Unpauses all token transfers.     * See {ERC20Pausable} and {Pausable-_unpause}.     * Requirements:     * - the caller must have the `PAUSER_ROLE`."
      }
    }
  },
  "userdoc": {
    "methods": {}
  }
}